{
	"data": {
		"bytecode": {
			"linkReferences": {},
			"object": "608060405234801561000f575f80fd5b506101478061001d5f395ff3fe608060405234801561000f575f80fd5b5060043610610029575f3560e01c8063feaf968c1461002d575b5f80fd5b61003561004f565b6040516100469594939291906100c0565b60405180910390f35b5f805f805f806108ba425f80945094509450945094509091929394565b5f69ffffffffffffffffffff82169050919050565b61008a8161006c565b82525050565b5f819050919050565b6100a281610090565b82525050565b5f819050919050565b6100ba816100a8565b82525050565b5f60a0820190506100d35f830188610081565b6100e06020830187610099565b6100ed60408301866100b1565b6100fa60608301856100b1565b6101076080830184610081565b969550505050505056fea26469706673582212209cc73d1671d93964811c6de347aef0ba15a4272865d54a9b263ed86325ed959264736f6c63430008160033",
			"opcodes": "PUSH1 0x80 PUSH1 0x40 MSTORE CALLVALUE DUP1 ISZERO PUSH2 0xF JUMPI PUSH0 DUP1 REVERT JUMPDEST POP PUSH2 0x147 DUP1 PUSH2 0x1D PUSH0 CODECOPY PUSH0 RETURN INVALID PUSH1 0x80 PUSH1 0x40 MSTORE CALLVALUE DUP1 ISZERO PUSH2 0xF JUMPI PUSH0 DUP1 REVERT JUMPDEST POP PUSH1 0x4 CALLDATASIZE LT PUSH2 0x29 JUMPI PUSH0 CALLDATALOAD PUSH1 0xE0 SHR DUP1 PUSH4 0xFEAF968C EQ PUSH2 0x2D JUMPI JUMPDEST PUSH0 DUP1 REVERT JUMPDEST PUSH2 0x35 PUSH2 0x4F JUMP JUMPDEST PUSH1 0x40 MLOAD PUSH2 0x46 SWAP6 SWAP5 SWAP4 SWAP3 SWAP2 SWAP1 PUSH2 0xC0 JUMP JUMPDEST PUSH1 0x40 MLOAD DUP1 SWAP2 SUB SWAP1 RETURN JUMPDEST PUSH0 DUP1 PUSH0 DUP1 PUSH0 DUP1 PUSH2 0x8BA TIMESTAMP PUSH0 DUP1 SWAP5 POP SWAP5 POP SWAP5 POP SWAP5 POP SWAP5 POP SWAP1 SWAP2 SWAP3 SWAP4 SWAP5 JUMP JUMPDEST PUSH0 PUSH10 0xFFFFFFFFFFFFFFFFFFFF DUP3 AND SWAP1 POP SWAP2 SWAP1 POP JUMP JUMPDEST PUSH2 0x8A DUP2 PUSH2 0x6C JUMP JUMPDEST DUP3 MSTORE POP POP JUMP JUMPDEST PUSH0 DUP2 SWAP1 POP SWAP2 SWAP1 POP JUMP JUMPDEST PUSH2 0xA2 DUP2 PUSH2 0x90 JUMP JUMPDEST DUP3 MSTORE POP POP JUMP JUMPDEST PUSH0 DUP2 SWAP1 POP SWAP2 SWAP1 POP JUMP JUMPDEST PUSH2 0xBA DUP2 PUSH2 0xA8 JUMP JUMPDEST DUP3 MSTORE POP POP JUMP JUMPDEST PUSH0 PUSH1 0xA0 DUP3 ADD SWAP1 POP PUSH2 0xD3 PUSH0 DUP4 ADD DUP9 PUSH2 0x81 JUMP JUMPDEST PUSH2 0xE0 PUSH1 0x20 DUP4 ADD DUP8 PUSH2 0x99 JUMP JUMPDEST PUSH2 0xED PUSH1 0x40 DUP4 ADD DUP7 PUSH2 0xB1 JUMP JUMPDEST PUSH2 0xFA PUSH1 0x60 DUP4 ADD DUP6 PUSH2 0xB1 JUMP JUMPDEST PUSH2 0x107 PUSH1 0x80 DUP4 ADD DUP5 PUSH2 0x81 JUMP JUMPDEST SWAP7 SWAP6 POP POP POP POP POP POP JUMP INVALID LOG2 PUSH5 0x6970667358 0x22 SLT KECCAK256 SWAP13 0xC7 RETURNDATASIZE AND PUSH18 0xD93964811C6DE347AEF0BA15A4272865D54A SWAP12 0x26 RETURNDATACOPY 0xD8 PUSH4 0x25ED9592 PUSH5 0x736F6C6343 STOP ADDMOD AND STOP CALLER "
		},
		"gasEstimates": {
			"creation": {
				"codeDepositCost": "65400",
				"executionCost": "115",
				"totalCost": "65515"
			},
			"external": {
				"latestRoundData()": "infinite"
			}
		},
		"methodIdentifiers": {
			"latestRoundData()": "feaf968c"
		}
	},
	"abi": [
		{
			"inputs": [],
			"name": "latestRoundData",
			"outputs": [
				{
					"internalType": "uint80",
					"name": "",
					"type": "uint80"
				},
				{
					"internalType": "int256",
					"name": "",
					"type": "int256"
				},
				{
					"internalType": "uint256",
					"name": "",
					"type": "uint256"
				},
				{
					"internalType": "uint256",
					"name": "",
					"type": "uint256"
				},
				{
					"internalType": "uint80",
					"name": "",
					"type": "uint80"
				}
			],
			"stateMutability": "view",
			"type": "function"
		}
	]
}