{
	"data": {
		"bytecode": {
			"linkReferences": {},
			"object": "61016060405234801562000011575f80fd5b5062000022620002b160201b60201c565b6040518060400160405280600481526020017f5553445000000000000000000000000000000000000000000000000000000000815250806040518060400160405280600181526020017f31000000000000000000000000000000000000000000000000000000000000008152506040518060400160405280600f81526020017f5065706f20537461626c65636f696e00000000000000000000000000000000008152506040518060400160405280600481526020017f555344500000000000000000000000000000000000000000000000000000000081525081600390816200010c919062000703565b5080600490816200011e919062000703565b50505062000137600583620002b860201b90919060201c565b610120818152505062000155600682620002b860201b90919060201c565b6101408181525050818051906020012060e08181525050808051906020012061010081815250504660a08181525050620001946200030d60201b60201c565b608081815250503073ffffffffffffffffffffffffffffffffffffffff1660c08173ffffffffffffffffffffffffffffffffffffffff16815250505050505f73ffffffffffffffffffffffffffffffffffffffff168173ffffffffffffffffffffffffffffffffffffffff160362000245575f6040517f1e4fbdf70000000000000000000000000000000000000000000000000000000081526004016200023c91906200082a565b60405180910390fd5b62000256816200036960201b60201c565b50735f4ec3df9cbd43714fe2740f5e3616155c5b8419600a5f6101000a81548173ffffffffffffffffffffffffffffffffffffffff021916908373ffffffffffffffffffffffffffffffffffffffff16021790555062000a15565b5f33905090565b5f602083511015620002dd57620002d5836200042c60201b60201c565b905062000307565b82620002ef836200049660201b60201c565b5f019081620002ff919062000703565b5060ff5f1b90505b92915050565b5f7f8b73c3c69bb8fe3d512ecc4cf759cc79239f7b179b0ffacaa9a75d522b39400f60e0516101005146306040516020016200034e95949392919062000870565b60405160208183030381529060405280519060200120905090565b5f60085f9054906101000a900473ffffffffffffffffffffffffffffffffffffffff1690508160085f6101000a81548173ffffffffffffffffffffffffffffffffffffffff021916908373ffffffffffffffffffffffffffffffffffffffff1602179055508173ffffffffffffffffffffffffffffffffffffffff168173ffffffffffffffffffffffffffffffffffffffff167f8be0079c531659141344cd1fd0a4f28419497f9722a3daafe3b4186f6b6457e060405160405180910390a35050565b5f80829050601f815111156200047b57826040517f305a27a900000000000000000000000000000000000000000000000000000000815260040162000472919062000955565b60405180910390fd5b8051816200048990620009a6565b5f1c175f1b915050919050565b5f819050919050565b5f81519050919050565b7f4e487b71000000000000000000000000000000000000000000000000000000005f52604160045260245ffd5b7f4e487b71000000000000000000000000000000000000000000000000000000005f52602260045260245ffd5b5f60028204905060018216806200051b57607f821691505b602082108103620005315762000530620004d6565b5b50919050565b5f819050815f5260205f209050919050565b5f6020601f8301049050919050565b5f82821b905092915050565b5f60088302620005957fffffffffffffffffffffffffffffffffffffffffffffffffffffffffffffffff8262000558565b620005a1868362000558565b95508019841693508086168417925050509392505050565b5f819050919050565b5f819050919050565b5f620005eb620005e5620005df84620005b9565b620005c2565b620005b9565b9050919050565b5f819050919050565b6200060683620005cb565b6200061e6200061582620005f2565b84845462000564565b825550505050565b5f90565b6200063462000626565b62000641818484620005fb565b505050565b5b8181101562000668576200065c5f826200062a565b60018101905062000647565b5050565b601f821115620006b757620006818162000537565b6200068c8462000549565b810160208510156200069c578190505b620006b4620006ab8562000549565b83018262000646565b50505b505050565b5f82821c905092915050565b5f620006d95f1984600802620006bc565b1980831691505092915050565b5f620006f38383620006c8565b9150826002028217905092915050565b6200070e826200049f565b67ffffffffffffffff8111156200072a5762000729620004a9565b5b62000736825462000503565b620007438282856200066c565b5f60209050601f83116001811462000779575f841562000764578287015190505b620007708582620006e6565b865550620007df565b601f198416620007898662000537565b5f5b82811015620007b2578489015182556001820191506020850194506020810190506200078b565b86831015620007d25784890151620007ce601f891682620006c8565b8355505b6001600288020188555050505b505050505050565b5f73ffffffffffffffffffffffffffffffffffffffff82169050919050565b5f6200081282620007e7565b9050919050565b620008248162000806565b82525050565b5f6020820190506200083f5f83018462000819565b92915050565b5f819050919050565b620008598162000845565b82525050565b6200086a81620005b9565b82525050565b5f60a082019050620008855f8301886200084e565b6200089460208301876200084e565b620008a360408301866200084e565b620008b260608301856200085f565b620008c1608083018462000819565b9695505050505050565b5f82825260208201905092915050565b5f5b83811015620008fa578082015181840152602081019050620008dd565b5f8484015250505050565b5f601f19601f8301169050919050565b5f62000921826200049f565b6200092d8185620008cb565b93506200093f818560208601620008db565b6200094a8162000905565b840191505092915050565b5f6020820190508181035f8301526200096f818462000915565b905092915050565b5f81519050919050565b5f819050602082019050919050565b5f6200099d825162000845565b80915050919050565b5f620009b28262000977565b82620009be8462000981565b9050620009cb8162000990565b9250602082101562000a0e5762000a097fffffffffffffffffffffffffffffffffffffffffffffffffffffffffffffffff8360200360080262000558565b831692505b5050919050565b60805160a05160c05160e05161010051610120516101405161266762000a675f395f6111ac01525f61117101525f61172401525f61170301525f610fac01525f61100201525f61102b01526126675ff3fe608060405260043610610113575f3560e01c8063715018a61161009f578063a9059cbb11610063578063a9059cbb1461039b578063c5ebeaec146103d7578063d505accf146103f3578063dd62ed3e1461041b578063f2fde38b1461045757610113565b8063715018a6146102c55780637ecebe00146102db57806384b0196e146103175780638da5cb5b1461034757806395d89b411461037157610113565b80632f865568116100e65780632f865568146101e3578063313ce5671461020b5780633644e5151461023557806367c9b0171461025f57806370a082311461028957610113565b806306fdde0314610117578063095ea7b31461014157806318160ddd1461017d57806323b872dd146101a7575b5f80fd5b348015610122575f80fd5b5061012b61047f565b6040516101389190611bf4565b60405180910390f35b34801561014c575f80fd5b5061016760048036038101906101629190611ca5565b61050f565b6040516101749190611cfd565b60405180910390f35b348015610188575f80fd5b50610191610531565b60405161019e9190611d25565b60405180910390f35b3480156101b2575f80fd5b506101cd60048036038101906101c89190611d3e565b61053a565b6040516101da9190611cfd565b60405180910390f35b3480156101ee575f80fd5b5061020960048036038101906102049190611d8e565b610568565b005b348015610216575f80fd5b5061021f610763565b60405161022c9190611dd4565b60405180910390f35b348015610240575f80fd5b5061024961076b565b6040516102569190611e05565b60405180910390f35b34801561026a575f80fd5b50610273610779565b6040516102809190611d25565b60405180910390f35b348015610294575f80fd5b506102af60048036038101906102aa9190611d8e565b610816565b6040516102bc9190611d25565b60405180910390f35b3480156102d0575f80fd5b506102d961085b565b005b3480156102e6575f80fd5b5061030160048036038101906102fc9190611d8e565b61086e565b60405161030e9190611d25565b60405180910390f35b348015610322575f80fd5b5061032b61087f565b60405161033e9796959493929190611f1e565b60405180910390f35b348015610352575f80fd5b5061035b610924565b6040516103689190611fa0565b60405180910390f35b34801561037c575f80fd5b5061038561094c565b6040516103929190611bf4565b60405180910390f35b3480156103a6575f80fd5b506103c160048036038101906103bc9190611ca5565b6109dc565b6040516103ce9190611cfd565b60405180910390f35b6103f160048036038101906103ec9190611fb9565b6109fe565b005b3480156103fe575f80fd5b5061041960048036038101906104149190612038565b610b3c565b005b348015610426575f80fd5b50610441600480360381019061043c91906120d5565b610c81565b60405161044e9190611d25565b60405180910390f35b348015610462575f80fd5b5061047d60048036038101906104789190611d8e565b610d03565b005b60606003805461048e90612140565b80601f01602080910402602001604051908101604052809291908181526020018280546104ba90612140565b80156105055780601f106104dc57610100808354040283529160200191610505565b820191905f5260205f20905b8154815290600101906020018083116104e857829003601f168201915b5050505050905090565b5f80610519610d87565b9050610526818585610d8e565b600191505092915050565b5f600254905090565b5f80610544610d87565b9050610551858285610da0565b61055c858585610e32565b60019150509392505050565b610570610f22565b6055606460095f8473ffffffffffffffffffffffffffffffffffffffff1673ffffffffffffffffffffffffffffffffffffffff1681526020019081526020015f20600101546105bd610779565b6105c7919061219d565b60095f8573ffffffffffffffffffffffffffffffffffffffff1673ffffffffffffffffffffffffffffffffffffffff1681526020019081526020015f205f0154610611919061220b565b61061b919061219d565b101561065c576040517f08c379a0000000000000000000000000000000000000000000000000000000008152600401610653906122ab565b60405180910390fd5b5f60095f8373ffffffffffffffffffffffffffffffffffffffff1673ffffffffffffffffffffffffffffffffffffffff1681526020019081526020015f2060010154905060405180604001604052805f81526020015f81525060095f8473ffffffffffffffffffffffffffffffffffffffff1673ffffffffffffffffffffffffffffffffffffffff1681526020019081526020015f205f820151815f01556020820151816001015590505061070f610d87565b73ffffffffffffffffffffffffffffffffffffffff167fd9d00ed0decba63a0ad16a878de20d30a429554f47b378787a818b7284da17b58260016040516107579291906122c9565b60405180910390a25050565b5f6012905090565b5f610774610fa9565b905090565b5f80600a5f9054906101000a900473ffffffffffffffffffffffffffffffffffffffff1673ffffffffffffffffffffffffffffffffffffffff1663feaf968c6040518163ffffffff1660e01b815260040160a060405180830381865afa1580156107e5573d5f803e3d5ffd5b505050506040513d601f19601f820116820180604052508101906108099190612376565b5050509150508091505090565b5f805f8373ffffffffffffffffffffffffffffffffffffffff1673ffffffffffffffffffffffffffffffffffffffff1681526020019081526020015f20549050919050565b610863610f22565b61086c5f61105f565b565b5f61087882611122565b9050919050565b5f6060805f805f6060610890611168565b6108986111a3565b46305f801b5f67ffffffffffffffff8111156108b7576108b66123ed565b5b6040519080825280602002602001820160405280156108e55781602001602082028036833780820191505090505b507f0f00000000000000000000000000000000000000000000000000000000000000959493929190965096509650965096509650965090919293949596565b5f60085f9054906101000a900473ffffffffffffffffffffffffffffffffffffffff16905090565b60606004805461095b90612140565b80601f016020809104026020016040519081016040528092919081815260200182805461098790612140565b80156109d25780601f106109a9576101008083540402835291602001916109d2565b820191905f5260205f20905b8154815290600101906020018083116109b557829003601f168201915b5050505050905090565b5f806109e6610d87565b90506109f3818585610e32565b600191505092915050565b604b811115610a42576040517f08c379a0000000000000000000000000000000000000000000000000000000008152600401610a3990612464565b60405180910390fd5b5f34610a4c610779565b610a56919061219d565b90505f8282610a65919061219d565b905060405180604001604052808281526020018381525060095f3373ffffffffffffffffffffffffffffffffffffffff1673ffffffffffffffffffffffffffffffffffffffff1681526020019081526020015f205f820151815f015560208201518160010155905050610adf610ad9610d87565b826111de565b610ae7610d87565b73ffffffffffffffffffffffffffffffffffffffff167fd9d00ed0decba63a0ad16a878de20d30a429554f47b378787a818b7284da17b5826001604051610b2f9291906122c9565b60405180910390a2505050565b83421115610b8157836040517f62791302000000000000000000000000000000000000000000000000000000008152600401610b789190611d25565b60405180910390fd5b5f7f6e71edae12b1b97f4d1f60370fef10105fa2faae0126114a169c64845d6126c9888888610baf8c61125d565b89604051602001610bc596959493929190612482565b6040516020818303038152906040528051906020012090505f610be7826112b0565b90505f610bf6828787876112c9565b90508973ffffffffffffffffffffffffffffffffffffffff168173ffffffffffffffffffffffffffffffffffffffff1614610c6a57808a6040517f4b800e46000000000000000000000000000000000000000000000000000000008152600401610c619291906124e1565b60405180910390fd5b610c758a8a8a610d8e565b50505050505050505050565b5f60015f8473ffffffffffffffffffffffffffffffffffffffff1673ffffffffffffffffffffffffffffffffffffffff1681526020019081526020015f205f8373ffffffffffffffffffffffffffffffffffffffff1673ffffffffffffffffffffffffffffffffffffffff1681526020019081526020015f2054905092915050565b610d0b610f22565b5f73ffffffffffffffffffffffffffffffffffffffff168173ffffffffffffffffffffffffffffffffffffffff1603610d7b575f6040517f1e4fbdf7000000000000000000000000000000000000000000000000000000008152600401610d729190611fa0565b60405180910390fd5b610d848161105f565b50565b5f33905090565b610d9b83838360016112f7565b505050565b5f610dab8484610c81565b90507fffffffffffffffffffffffffffffffffffffffffffffffffffffffffffffffff8114610e2c5781811015610e1d578281836040517ffb8f41b2000000000000000000000000000000000000000000000000000000008152600401610e1493929190612508565b60405180910390fd5b610e2b84848484035f6112f7565b5b50505050565b5f73ffffffffffffffffffffffffffffffffffffffff168373ffffffffffffffffffffffffffffffffffffffff1603610ea2575f6040517f96c6fd1e000000000000000000000000000000000000000000000000000000008152600401610e999190611fa0565b60405180910390fd5b5f73ffffffffffffffffffffffffffffffffffffffff168273ffffffffffffffffffffffffffffffffffffffff1603610f12575f6040517fec442f05000000000000000000000000000000000000000000000000000000008152600401610f099190611fa0565b60405180910390fd5b610f1d8383836114c6565b505050565b610f2a610d87565b73ffffffffffffffffffffffffffffffffffffffff16610f48610924565b73ffffffffffffffffffffffffffffffffffffffff1614610fa757610f6b610d87565b6040517f118cdaa7000000000000000000000000000000000000000000000000000000008152600401610f9e9190611fa0565b60405180910390fd5b565b5f7f000000000000000000000000000000000000000000000000000000000000000073ffffffffffffffffffffffffffffffffffffffff163073ffffffffffffffffffffffffffffffffffffffff1614801561102457507f000000000000000000000000000000000000000000000000000000000000000046145b15611051577f0000000000000000000000000000000000000000000000000000000000000000905061105c565b6110596116df565b90505b90565b5f60085f9054906101000a900473ffffffffffffffffffffffffffffffffffffffff1690508160085f6101000a81548173ffffffffffffffffffffffffffffffffffffffff021916908373ffffffffffffffffffffffffffffffffffffffff1602179055508173ffffffffffffffffffffffffffffffffffffffff168173ffffffffffffffffffffffffffffffffffffffff167f8be0079c531659141344cd1fd0a4f28419497f9722a3daafe3b4186f6b6457e060405160405180910390a35050565b5f60075f8373ffffffffffffffffffffffffffffffffffffffff1673ffffffffffffffffffffffffffffffffffffffff1681526020019081526020015f20549050919050565b606061119e60057f000000000000000000000000000000000000000000000000000000000000000061177490919063ffffffff16565b905090565b60606111d960067f000000000000000000000000000000000000000000000000000000000000000061177490919063ffffffff16565b905090565b5f73ffffffffffffffffffffffffffffffffffffffff168273ffffffffffffffffffffffffffffffffffffffff160361124e575f6040517fec442f050000000000000000000000000000000000000000000000000000000081526004016112459190611fa0565b60405180910390fd5b6112595f83836114c6565b5050565b5f60075f8373ffffffffffffffffffffffffffffffffffffffff1673ffffffffffffffffffffffffffffffffffffffff1681526020019081526020015f205f815480929190600101919050559050919050565b5f6112c26112bc610fa9565b83611821565b9050919050565b5f805f806112d988888888611861565b9250925092506112e98282611948565b829350505050949350505050565b5f73ffffffffffffffffffffffffffffffffffffffff168473ffffffffffffffffffffffffffffffffffffffff1603611367575f6040517fe602df0500000000000000000000000000000000000000000000000000000000815260040161135e9190611fa0565b60405180910390fd5b5f73ffffffffffffffffffffffffffffffffffffffff168373ffffffffffffffffffffffffffffffffffffffff16036113d7575f6040517f94280d620000000000000000000000000000000000000000000000000000000081526004016113ce9190611fa0565b60405180910390fd5b8160015f8673ffffffffffffffffffffffffffffffffffffffff1673ffffffffffffffffffffffffffffffffffffffff1681526020019081526020015f205f8573ffffffffffffffffffffffffffffffffffffffff1673ffffffffffffffffffffffffffffffffffffffff1681526020019081526020015f208190555080156114c0578273ffffffffffffffffffffffffffffffffffffffff168473ffffffffffffffffffffffffffffffffffffffff167f8c5be1e5ebec7d5bd14f71427d1e84f3dd0314c0f7b2291e5b200ac8c7c3b925846040516114b79190611d25565b60405180910390a35b50505050565b5f73ffffffffffffffffffffffffffffffffffffffff168373ffffffffffffffffffffffffffffffffffffffff1603611516578060025f82825461150a919061253d565b925050819055506115e4565b5f805f8573ffffffffffffffffffffffffffffffffffffffff1673ffffffffffffffffffffffffffffffffffffffff1681526020019081526020015f205490508181101561159f578381836040517fe450d38c00000000000000000000000000000000000000000000000000000000815260040161159693929190612508565b60405180910390fd5b8181035f808673ffffffffffffffffffffffffffffffffffffffff1673ffffffffffffffffffffffffffffffffffffffff1681526020019081526020015f2081905550505b5f73ffffffffffffffffffffffffffffffffffffffff168273ffffffffffffffffffffffffffffffffffffffff160361162b578060025f8282540392505081905550611675565b805f808473ffffffffffffffffffffffffffffffffffffffff1673ffffffffffffffffffffffffffffffffffffffff1681526020019081526020015f205f82825401925050819055505b8173ffffffffffffffffffffffffffffffffffffffff168373ffffffffffffffffffffffffffffffffffffffff167fddf252ad1be2c89b69c2b068fc378daa952ba7f163c4a11628f55a4df523b3ef836040516116d29190611d25565b60405180910390a3505050565b5f7f8b73c3c69bb8fe3d512ecc4cf759cc79239f7b179b0ffacaa9a75d522b39400f7f00000000000000000000000000000000000000000000000000000000000000007f00000000000000000000000000000000000000000000000000000000000000004630604051602001611759959493929190612570565b60405160208183030381529060405280519060200120905090565b606060ff5f1b83146117905761178983611aaa565b905061181b565b81805461179c90612140565b80601f01602080910402602001604051908101604052809291908181526020018280546117c890612140565b80156118135780601f106117ea57610100808354040283529160200191611813565b820191905f5260205f20905b8154815290600101906020018083116117f657829003601f168201915b505050505090505b92915050565b5f6040517f190100000000000000000000000000000000000000000000000000000000000081528360028201528260228201526042812091505092915050565b5f805f7f7fffffffffffffffffffffffffffffff5d576e7357a4501ddfe92f46681b20a0845f1c111561189d575f60038592509250925061193e565b5f6001888888886040515f81526020016040526040516118c094939291906125c1565b6020604051602081039080840390855afa1580156118e0573d5f803e3d5ffd5b5050506020604051035190505f73ffffffffffffffffffffffffffffffffffffffff168173ffffffffffffffffffffffffffffffffffffffff1603611931575f60015f801b9350935093505061193e565b805f805f1b935093509350505b9450945094915050565b5f600381111561195b5761195a612604565b5b82600381111561196e5761196d612604565b5b0315611aa6576001600381111561198857611987612604565b5b82600381111561199b5761199a612604565b5b036119d2576040517ff645eedf00000000000000000000000000000000000000000000000000000000815260040160405180910390fd5b600260038111156119e6576119e5612604565b5b8260038111156119f9576119f8612604565b5b03611a3d57805f1c6040517ffce698f7000000000000000000000000000000000000000000000000000000008152600401611a349190611d25565b60405180910390fd5b600380811115611a5057611a4f612604565b5b826003811115611a6357611a62612604565b5b03611aa557806040517fd78bce0c000000000000000000000000000000000000000000000000000000008152600401611a9c9190611e05565b60405180910390fd5b5b5050565b60605f611ab683611b1c565b90505f602067ffffffffffffffff811115611ad457611ad36123ed565b5b6040519080825280601f01601f191660200182016040528015611b065781602001600182028036833780820191505090505b5090508181528360208201528092505050919050565b5f8060ff835f1c169050601f811115611b61576040517fb3512b0c00000000000000000000000000000000000000000000000000000000815260040160405180910390fd5b80915050919050565b5f81519050919050565b5f82825260208201905092915050565b5f5b83811015611ba1578082015181840152602081019050611b86565b5f8484015250505050565b5f601f19601f8301169050919050565b5f611bc682611b6a565b611bd08185611b74565b9350611be0818560208601611b84565b611be981611bac565b840191505092915050565b5f6020820190508181035f830152611c0c8184611bbc565b905092915050565b5f80fd5b5f73ffffffffffffffffffffffffffffffffffffffff82169050919050565b5f611c4182611c18565b9050919050565b611c5181611c37565b8114611c5b575f80fd5b50565b5f81359050611c6c81611c48565b92915050565b5f819050919050565b611c8481611c72565b8114611c8e575f80fd5b50565b5f81359050611c9f81611c7b565b92915050565b5f8060408385031215611cbb57611cba611c14565b5b5f611cc885828601611c5e565b9250506020611cd985828601611c91565b9150509250929050565b5f8115159050919050565b611cf781611ce3565b82525050565b5f602082019050611d105f830184611cee565b92915050565b611d1f81611c72565b82525050565b5f602082019050611d385f830184611d16565b92915050565b5f805f60608486031215611d5557611d54611c14565b5b5f611d6286828701611c5e565b9350506020611d7386828701611c5e565b9250506040611d8486828701611c91565b9150509250925092565b5f60208284031215611da357611da2611c14565b5b5f611db084828501611c5e565b91505092915050565b5f60ff82169050919050565b611dce81611db9565b82525050565b5f602082019050611de75f830184611dc5565b92915050565b5f819050919050565b611dff81611ded565b82525050565b5f602082019050611e185f830184611df6565b92915050565b5f7fff0000000000000000000000000000000000000000000000000000000000000082169050919050565b611e5281611e1e565b82525050565b611e6181611c37565b82525050565b5f81519050919050565b5f82825260208201905092915050565b5f819050602082019050919050565b611e9981611c72565b82525050565b5f611eaa8383611e90565b60208301905092915050565b5f602082019050919050565b5f611ecc82611e67565b611ed68185611e71565b9350611ee183611e81565b805f5b83811015611f11578151611ef88882611e9f565b9750611f0383611eb6565b925050600181019050611ee4565b5085935050505092915050565b5f60e082019050611f315f83018a611e49565b8181036020830152611f438189611bbc565b90508181036040830152611f578188611bbc565b9050611f666060830187611d16565b611f736080830186611e58565b611f8060a0830185611df6565b81810360c0830152611f928184611ec2565b905098975050505050505050565b5f602082019050611fb35f830184611e58565b92915050565b5f60208284031215611fce57611fcd611c14565b5b5f611fdb84828501611c91565b91505092915050565b611fed81611db9565b8114611ff7575f80fd5b50565b5f8135905061200881611fe4565b92915050565b61201781611ded565b8114612021575f80fd5b50565b5f813590506120328161200e565b92915050565b5f805f805f805f60e0888a03121561205357612052611c14565b5b5f6120608a828b01611c5e565b97505060206120718a828b01611c5e565b96505060406120828a828b01611c91565b95505060606120938a828b01611c91565b94505060806120a48a828b01611ffa565b93505060a06120b58a828b01612024565b92505060c06120c68a828b01612024565b91505092959891949750929550565b5f80604083850312156120eb576120ea611c14565b5b5f6120f885828601611c5e565b925050602061210985828601611c5e565b9150509250929050565b7f4e487b71000000000000000000000000000000000000000000000000000000005f52602260045260245ffd5b5f600282049050600182168061215757607f821691505b60208210810361216a57612169612113565b5b50919050565b7f4e487b71000000000000000000000000000000000000000000000000000000005f52601160045260245ffd5b5f6121a782611c72565b91506121b283611c72565b92508282026121c081611c72565b915082820484148315176121d7576121d6612170565b5b5092915050565b7f4e487b71000000000000000000000000000000000000000000000000000000005f52601260045260245ffd5b5f61221582611c72565b915061222083611c72565b9250826122305761222f6121de565b5b828204905092915050565b7f63757272656e746c79206465707420746f20636f727265746572616c207261745f8201527f696f206c657373207468616e2038352500000000000000000000000000000000602082015250565b5f612295603083611b74565b91506122a08261223b565b604082019050919050565b5f6020820190508181035f8301526122c281612289565b9050919050565b5f6040820190506122dc5f830185611d16565b6122e96020830184611cee565b9392505050565b5f69ffffffffffffffffffff82169050919050565b61230e816122f0565b8114612318575f80fd5b50565b5f8151905061232981612305565b92915050565b5f819050919050565b6123418161232f565b811461234b575f80fd5b50565b5f8151905061235c81612338565b92915050565b5f8151905061237081611c7b565b92915050565b5f805f805f60a0868803121561238f5761238e611c14565b5b5f61239c8882890161231b565b95505060206123ad8882890161234e565b94505060406123be88828901612362565b93505060606123cf88828901612362565b92505060806123e08882890161231b565b9150509295509295909350565b7f4e487b71000000000000000000000000000000000000000000000000000000005f52604160045260245ffd5b7f526174696f206d757374206c657373207468616e20657175616c2037352500005f82015250565b5f61244e601e83611b74565b91506124598261241a565b602082019050919050565b5f6020820190508181035f83015261247b81612442565b9050919050565b5f60c0820190506124955f830189611df6565b6124a26020830188611e58565b6124af6040830187611e58565b6124bc6060830186611d16565b6124c96080830185611d16565b6124d660a0830184611d16565b979650505050505050565b5f6040820190506124f45f830185611e58565b6125016020830184611e58565b9392505050565b5f60608201905061251b5f830186611e58565b6125286020830185611d16565b6125356040830184611d16565b949350505050565b5f61254782611c72565b915061255283611c72565b925082820190508082111561256a57612569612170565b5b92915050565b5f60a0820190506125835f830188611df6565b6125906020830187611df6565b61259d6040830186611df6565b6125aa6060830185611d16565b6125b76080830184611e58565b9695505050505050565b5f6080820190506125d45f830187611df6565b6125e16020830186611dc5565b6125ee6040830185611df6565b6125fb6060830184611df6565b95945050505050565b7f4e487b71000000000000000000000000000000000000000000000000000000005f52602160045260245ffdfea26469706673582212202863a85ac47b5d9ae1b1bd47376db3b288f0ab83184c876f759788f57eb9746764736f6c63430008160033",
			"opcodes": "PUSH2 0x160 PUSH1 0x40 MSTORE CALLVALUE DUP1 ISZERO PUSH3 0x11 JUMPI PUSH0 DUP1 REVERT JUMPDEST POP PUSH3 0x22 PUSH3 0x2B1 PUSH1 0x20 SHL PUSH1 0x20 SHR JUMP JUMPDEST PUSH1 0x40 MLOAD DUP1 PUSH1 0x40 ADD PUSH1 0x40 MSTORE DUP1 PUSH1 0x4 DUP2 MSTORE PUSH1 0x20 ADD PUSH32 0x5553445000000000000000000000000000000000000000000000000000000000 DUP2 MSTORE POP DUP1 PUSH1 0x40 MLOAD DUP1 PUSH1 0x40 ADD PUSH1 0x40 MSTORE DUP1 PUSH1 0x1 DUP2 MSTORE PUSH1 0x20 ADD PUSH32 0x3100000000000000000000000000000000000000000000000000000000000000 DUP2 MSTORE POP PUSH1 0x40 MLOAD DUP1 PUSH1 0x40 ADD PUSH1 0x40 MSTORE DUP1 PUSH1 0xF DUP2 MSTORE PUSH1 0x20 ADD PUSH32 0x5065706F20537461626C65636F696E0000000000000000000000000000000000 DUP2 MSTORE POP PUSH1 0x40 MLOAD DUP1 PUSH1 0x40 ADD PUSH1 0x40 MSTORE DUP1 PUSH1 0x4 DUP2 MSTORE PUSH1 0x20 ADD PUSH32 0x5553445000000000000000000000000000000000000000000000000000000000 DUP2 MSTORE POP DUP2 PUSH1 0x3 SWAP1 DUP2 PUSH3 0x10C SWAP2 SWAP1 PUSH3 0x703 JUMP JUMPDEST POP DUP1 PUSH1 0x4 SWAP1 DUP2 PUSH3 0x11E SWAP2 SWAP1 PUSH3 0x703 JUMP JUMPDEST POP POP POP PUSH3 0x137 PUSH1 0x5 DUP4 PUSH3 0x2B8 PUSH1 0x20 SHL SWAP1 SWAP2 SWAP1 PUSH1 0x20 SHR JUMP JUMPDEST PUSH2 0x120 DUP2 DUP2 MSTORE POP POP PUSH3 0x155 PUSH1 0x6 DUP3 PUSH3 0x2B8 PUSH1 0x20 SHL SWAP1 SWAP2 SWAP1 PUSH1 0x20 SHR JUMP JUMPDEST PUSH2 0x140 DUP2 DUP2 MSTORE POP POP DUP2 DUP1 MLOAD SWAP1 PUSH1 0x20 ADD KECCAK256 PUSH1 0xE0 DUP2 DUP2 MSTORE POP POP DUP1 DUP1 MLOAD SWAP1 PUSH1 0x20 ADD KECCAK256 PUSH2 0x100 DUP2 DUP2 MSTORE POP POP CHAINID PUSH1 0xA0 DUP2 DUP2 MSTORE POP POP PUSH3 0x194 PUSH3 0x30D PUSH1 0x20 SHL PUSH1 0x20 SHR JUMP JUMPDEST PUSH1 0x80 DUP2 DUP2 MSTORE POP POP ADDRESS PUSH20 0xFFFFFFFFFFFFFFFFFFFFFFFFFFFFFFFFFFFFFFFF AND PUSH1 0xC0 DUP2 PUSH20 0xFFFFFFFFFFFFFFFFFFFFFFFFFFFFFFFFFFFFFFFF AND DUP2 MSTORE POP POP POP POP POP PUSH0 PUSH20 0xFFFFFFFFFFFFFFFFFFFFFFFFFFFFFFFFFFFFFFFF AND DUP2 PUSH20 0xFFFFFFFFFFFFFFFFFFFFFFFFFFFFFFFFFFFFFFFF AND SUB PUSH3 0x245 JUMPI PUSH0 PUSH1 0x40 MLOAD PUSH32 0x1E4FBDF700000000000000000000000000000000000000000000000000000000 DUP2 MSTORE PUSH1 0x4 ADD PUSH3 0x23C SWAP2 SWAP1 PUSH3 0x82A JUMP JUMPDEST PUSH1 0x40 MLOAD DUP1 SWAP2 SUB SWAP1 REVERT JUMPDEST PUSH3 0x256 DUP2 PUSH3 0x369 PUSH1 0x20 SHL PUSH1 0x20 SHR JUMP JUMPDEST POP PUSH20 0x5F4EC3DF9CBD43714FE2740F5E3616155C5B8419 PUSH1 0xA PUSH0 PUSH2 0x100 EXP DUP2 SLOAD DUP2 PUSH20 0xFFFFFFFFFFFFFFFFFFFFFFFFFFFFFFFFFFFFFFFF MUL NOT AND SWAP1 DUP4 PUSH20 0xFFFFFFFFFFFFFFFFFFFFFFFFFFFFFFFFFFFFFFFF AND MUL OR SWAP1 SSTORE POP PUSH3 0xA15 JUMP JUMPDEST PUSH0 CALLER SWAP1 POP SWAP1 JUMP JUMPDEST PUSH0 PUSH1 0x20 DUP4 MLOAD LT ISZERO PUSH3 0x2DD JUMPI PUSH3 0x2D5 DUP4 PUSH3 0x42C PUSH1 0x20 SHL PUSH1 0x20 SHR JUMP JUMPDEST SWAP1 POP PUSH3 0x307 JUMP JUMPDEST DUP3 PUSH3 0x2EF DUP4 PUSH3 0x496 PUSH1 0x20 SHL PUSH1 0x20 SHR JUMP JUMPDEST PUSH0 ADD SWAP1 DUP2 PUSH3 0x2FF SWAP2 SWAP1 PUSH3 0x703 JUMP JUMPDEST POP PUSH1 0xFF PUSH0 SHL SWAP1 POP JUMPDEST SWAP3 SWAP2 POP POP JUMP JUMPDEST PUSH0 PUSH32 0x8B73C3C69BB8FE3D512ECC4CF759CC79239F7B179B0FFACAA9A75D522B39400F PUSH1 0xE0 MLOAD PUSH2 0x100 MLOAD CHAINID ADDRESS PUSH1 0x40 MLOAD PUSH1 0x20 ADD PUSH3 0x34E SWAP6 SWAP5 SWAP4 SWAP3 SWAP2 SWAP1 PUSH3 0x870 JUMP JUMPDEST PUSH1 0x40 MLOAD PUSH1 0x20 DUP2 DUP4 SUB SUB DUP2 MSTORE SWAP1 PUSH1 0x40 MSTORE DUP1 MLOAD SWAP1 PUSH1 0x20 ADD KECCAK256 SWAP1 POP SWAP1 JUMP JUMPDEST PUSH0 PUSH1 0x8 PUSH0 SWAP1 SLOAD SWAP1 PUSH2 0x100 EXP SWAP1 DIV PUSH20 0xFFFFFFFFFFFFFFFFFFFFFFFFFFFFFFFFFFFFFFFF AND SWAP1 POP DUP2 PUSH1 0x8 PUSH0 PUSH2 0x100 EXP DUP2 SLOAD DUP2 PUSH20 0xFFFFFFFFFFFFFFFFFFFFFFFFFFFFFFFFFFFFFFFF MUL NOT AND SWAP1 DUP4 PUSH20 0xFFFFFFFFFFFFFFFFFFFFFFFFFFFFFFFFFFFFFFFF AND MUL OR SWAP1 SSTORE POP DUP2 PUSH20 0xFFFFFFFFFFFFFFFFFFFFFFFFFFFFFFFFFFFFFFFF AND DUP2 PUSH20 0xFFFFFFFFFFFFFFFFFFFFFFFFFFFFFFFFFFFFFFFF AND PUSH32 0x8BE0079C531659141344CD1FD0A4F28419497F9722A3DAAFE3B4186F6B6457E0 PUSH1 0x40 MLOAD PUSH1 0x40 MLOAD DUP1 SWAP2 SUB SWAP1 LOG3 POP POP JUMP JUMPDEST PUSH0 DUP1 DUP3 SWAP1 POP PUSH1 0x1F DUP2 MLOAD GT ISZERO PUSH3 0x47B JUMPI DUP3 PUSH1 0x40 MLOAD PUSH32 0x305A27A900000000000000000000000000000000000000000000000000000000 DUP2 MSTORE PUSH1 0x4 ADD PUSH3 0x472 SWAP2 SWAP1 PUSH3 0x955 JUMP JUMPDEST PUSH1 0x40 MLOAD DUP1 SWAP2 SUB SWAP1 REVERT JUMPDEST DUP1 MLOAD DUP2 PUSH3 0x489 SWAP1 PUSH3 0x9A6 JUMP JUMPDEST PUSH0 SHR OR PUSH0 SHL SWAP2 POP POP SWAP2 SWAP1 POP JUMP JUMPDEST PUSH0 DUP2 SWAP1 POP SWAP2 SWAP1 POP JUMP JUMPDEST PUSH0 DUP2 MLOAD SWAP1 POP SWAP2 SWAP1 POP JUMP JUMPDEST PUSH32 0x4E487B7100000000000000000000000000000000000000000000000000000000 PUSH0 MSTORE PUSH1 0x41 PUSH1 0x4 MSTORE PUSH1 0x24 PUSH0 REVERT JUMPDEST PUSH32 0x4E487B7100000000000000000000000000000000000000000000000000000000 PUSH0 MSTORE PUSH1 0x22 PUSH1 0x4 MSTORE PUSH1 0x24 PUSH0 REVERT JUMPDEST PUSH0 PUSH1 0x2 DUP3 DIV SWAP1 POP PUSH1 0x1 DUP3 AND DUP1 PUSH3 0x51B JUMPI PUSH1 0x7F DUP3 AND SWAP2 POP JUMPDEST PUSH1 0x20 DUP3 LT DUP2 SUB PUSH3 0x531 JUMPI PUSH3 0x530 PUSH3 0x4D6 JUMP JUMPDEST JUMPDEST POP SWAP2 SWAP1 POP JUMP JUMPDEST PUSH0 DUP2 SWAP1 POP DUP2 PUSH0 MSTORE PUSH1 0x20 PUSH0 KECCAK256 SWAP1 POP SWAP2 SWAP1 POP JUMP JUMPDEST PUSH0 PUSH1 0x20 PUSH1 0x1F DUP4 ADD DIV SWAP1 POP SWAP2 SWAP1 POP JUMP JUMPDEST PUSH0 DUP3 DUP3 SHL SWAP1 POP SWAP3 SWAP2 POP POP JUMP JUMPDEST PUSH0 PUSH1 0x8 DUP4 MUL PUSH3 0x595 PUSH32 0xFFFFFFFFFFFFFFFFFFFFFFFFFFFFFFFFFFFFFFFFFFFFFFFFFFFFFFFFFFFFFFFF DUP3 PUSH3 0x558 JUMP JUMPDEST PUSH3 0x5A1 DUP7 DUP4 PUSH3 0x558 JUMP JUMPDEST SWAP6 POP DUP1 NOT DUP5 AND SWAP4 POP DUP1 DUP7 AND DUP5 OR SWAP3 POP POP POP SWAP4 SWAP3 POP POP POP JUMP JUMPDEST PUSH0 DUP2 SWAP1 POP SWAP2 SWAP1 POP JUMP JUMPDEST PUSH0 DUP2 SWAP1 POP SWAP2 SWAP1 POP JUMP JUMPDEST PUSH0 PUSH3 0x5EB PUSH3 0x5E5 PUSH3 0x5DF DUP5 PUSH3 0x5B9 JUMP JUMPDEST PUSH3 0x5C2 JUMP JUMPDEST PUSH3 0x5B9 JUMP JUMPDEST SWAP1 POP SWAP2 SWAP1 POP JUMP JUMPDEST PUSH0 DUP2 SWAP1 POP SWAP2 SWAP1 POP JUMP JUMPDEST PUSH3 0x606 DUP4 PUSH3 0x5CB JUMP JUMPDEST PUSH3 0x61E PUSH3 0x615 DUP3 PUSH3 0x5F2 JUMP JUMPDEST DUP5 DUP5 SLOAD PUSH3 0x564 JUMP JUMPDEST DUP3 SSTORE POP POP POP POP JUMP JUMPDEST PUSH0 SWAP1 JUMP JUMPDEST PUSH3 0x634 PUSH3 0x626 JUMP JUMPDEST PUSH3 0x641 DUP2 DUP5 DUP5 PUSH3 0x5FB JUMP JUMPDEST POP POP POP JUMP JUMPDEST JUMPDEST DUP2 DUP2 LT ISZERO PUSH3 0x668 JUMPI PUSH3 0x65C PUSH0 DUP3 PUSH3 0x62A JUMP JUMPDEST PUSH1 0x1 DUP2 ADD SWAP1 POP PUSH3 0x647 JUMP JUMPDEST POP POP JUMP JUMPDEST PUSH1 0x1F DUP3 GT ISZERO PUSH3 0x6B7 JUMPI PUSH3 0x681 DUP2 PUSH3 0x537 JUMP JUMPDEST PUSH3 0x68C DUP5 PUSH3 0x549 JUMP JUMPDEST DUP2 ADD PUSH1 0x20 DUP6 LT ISZERO PUSH3 0x69C JUMPI DUP2 SWAP1 POP JUMPDEST PUSH3 0x6B4 PUSH3 0x6AB DUP6 PUSH3 0x549 JUMP JUMPDEST DUP4 ADD DUP3 PUSH3 0x646 JUMP JUMPDEST POP POP JUMPDEST POP POP POP JUMP JUMPDEST PUSH0 DUP3 DUP3 SHR SWAP1 POP SWAP3 SWAP2 POP POP JUMP JUMPDEST PUSH0 PUSH3 0x6D9 PUSH0 NOT DUP5 PUSH1 0x8 MUL PUSH3 0x6BC JUMP JUMPDEST NOT DUP1 DUP4 AND SWAP2 POP POP SWAP3 SWAP2 POP POP JUMP JUMPDEST PUSH0 PUSH3 0x6F3 DUP4 DUP4 PUSH3 0x6C8 JUMP JUMPDEST SWAP2 POP DUP3 PUSH1 0x2 MUL DUP3 OR SWAP1 POP SWAP3 SWAP2 POP POP JUMP JUMPDEST PUSH3 0x70E DUP3 PUSH3 0x49F JUMP JUMPDEST PUSH8 0xFFFFFFFFFFFFFFFF DUP2 GT ISZERO PUSH3 0x72A JUMPI PUSH3 0x729 PUSH3 0x4A9 JUMP JUMPDEST JUMPDEST PUSH3 0x736 DUP3 SLOAD PUSH3 0x503 JUMP JUMPDEST PUSH3 0x743 DUP3 DUP3 DUP6 PUSH3 0x66C JUMP JUMPDEST PUSH0 PUSH1 0x20 SWAP1 POP PUSH1 0x1F DUP4 GT PUSH1 0x1 DUP2 EQ PUSH3 0x779 JUMPI PUSH0 DUP5 ISZERO PUSH3 0x764 JUMPI DUP3 DUP8 ADD MLOAD SWAP1 POP JUMPDEST PUSH3 0x770 DUP6 DUP3 PUSH3 0x6E6 JUMP JUMPDEST DUP7 SSTORE POP PUSH3 0x7DF JUMP JUMPDEST PUSH1 0x1F NOT DUP5 AND PUSH3 0x789 DUP7 PUSH3 0x537 JUMP JUMPDEST PUSH0 JUMPDEST DUP3 DUP2 LT ISZERO PUSH3 0x7B2 JUMPI DUP5 DUP10 ADD MLOAD DUP3 SSTORE PUSH1 0x1 DUP3 ADD SWAP2 POP PUSH1 0x20 DUP6 ADD SWAP5 POP PUSH1 0x20 DUP2 ADD SWAP1 POP PUSH3 0x78B JUMP JUMPDEST DUP7 DUP4 LT ISZERO PUSH3 0x7D2 JUMPI DUP5 DUP10 ADD MLOAD PUSH3 0x7CE PUSH1 0x1F DUP10 AND DUP3 PUSH3 0x6C8 JUMP JUMPDEST DUP4 SSTORE POP JUMPDEST PUSH1 0x1 PUSH1 0x2 DUP9 MUL ADD DUP9 SSTORE POP POP POP JUMPDEST POP POP POP POP POP POP JUMP JUMPDEST PUSH0 PUSH20 0xFFFFFFFFFFFFFFFFFFFFFFFFFFFFFFFFFFFFFFFF DUP3 AND SWAP1 POP SWAP2 SWAP1 POP JUMP JUMPDEST PUSH0 PUSH3 0x812 DUP3 PUSH3 0x7E7 JUMP JUMPDEST SWAP1 POP SWAP2 SWAP1 POP JUMP JUMPDEST PUSH3 0x824 DUP2 PUSH3 0x806 JUMP JUMPDEST DUP3 MSTORE POP POP JUMP JUMPDEST PUSH0 PUSH1 0x20 DUP3 ADD SWAP1 POP PUSH3 0x83F PUSH0 DUP4 ADD DUP5 PUSH3 0x819 JUMP JUMPDEST SWAP3 SWAP2 POP POP JUMP JUMPDEST PUSH0 DUP2 SWAP1 POP SWAP2 SWAP1 POP JUMP JUMPDEST PUSH3 0x859 DUP2 PUSH3 0x845 JUMP JUMPDEST DUP3 MSTORE POP POP JUMP JUMPDEST PUSH3 0x86A DUP2 PUSH3 0x5B9 JUMP JUMPDEST DUP3 MSTORE POP POP JUMP JUMPDEST PUSH0 PUSH1 0xA0 DUP3 ADD SWAP1 POP PUSH3 0x885 PUSH0 DUP4 ADD DUP9 PUSH3 0x84E JUMP JUMPDEST PUSH3 0x894 PUSH1 0x20 DUP4 ADD DUP8 PUSH3 0x84E JUMP JUMPDEST PUSH3 0x8A3 PUSH1 0x40 DUP4 ADD DUP7 PUSH3 0x84E JUMP JUMPDEST PUSH3 0x8B2 PUSH1 0x60 DUP4 ADD DUP6 PUSH3 0x85F JUMP JUMPDEST PUSH3 0x8C1 PUSH1 0x80 DUP4 ADD DUP5 PUSH3 0x819 JUMP JUMPDEST SWAP7 SWAP6 POP POP POP POP POP POP JUMP JUMPDEST PUSH0 DUP3 DUP3 MSTORE PUSH1 0x20 DUP3 ADD SWAP1 POP SWAP3 SWAP2 POP POP JUMP JUMPDEST PUSH0 JUMPDEST DUP4 DUP2 LT ISZERO PUSH3 0x8FA JUMPI DUP1 DUP3 ADD MLOAD DUP2 DUP5 ADD MSTORE PUSH1 0x20 DUP2 ADD SWAP1 POP PUSH3 0x8DD JUMP JUMPDEST PUSH0 DUP5 DUP5 ADD MSTORE POP POP POP POP JUMP JUMPDEST PUSH0 PUSH1 0x1F NOT PUSH1 0x1F DUP4 ADD AND SWAP1 POP SWAP2 SWAP1 POP JUMP JUMPDEST PUSH0 PUSH3 0x921 DUP3 PUSH3 0x49F JUMP JUMPDEST PUSH3 0x92D DUP2 DUP6 PUSH3 0x8CB JUMP JUMPDEST SWAP4 POP PUSH3 0x93F DUP2 DUP6 PUSH1 0x20 DUP7 ADD PUSH3 0x8DB JUMP JUMPDEST PUSH3 0x94A DUP2 PUSH3 0x905 JUMP JUMPDEST DUP5 ADD SWAP2 POP POP SWAP3 SWAP2 POP POP JUMP JUMPDEST PUSH0 PUSH1 0x20 DUP3 ADD SWAP1 POP DUP2 DUP2 SUB PUSH0 DUP4 ADD MSTORE PUSH3 0x96F DUP2 DUP5 PUSH3 0x915 JUMP JUMPDEST SWAP1 POP SWAP3 SWAP2 POP POP JUMP JUMPDEST PUSH0 DUP2 MLOAD SWAP1 POP SWAP2 SWAP1 POP JUMP JUMPDEST PUSH0 DUP2 SWAP1 POP PUSH1 0x20 DUP3 ADD SWAP1 POP SWAP2 SWAP1 POP JUMP JUMPDEST PUSH0 PUSH3 0x99D DUP3 MLOAD PUSH3 0x845 JUMP JUMPDEST DUP1 SWAP2 POP POP SWAP2 SWAP1 POP JUMP JUMPDEST PUSH0 PUSH3 0x9B2 DUP3 PUSH3 0x977 JUMP JUMPDEST DUP3 PUSH3 0x9BE DUP5 PUSH3 0x981 JUMP JUMPDEST SWAP1 POP PUSH3 0x9CB DUP2 PUSH3 0x990 JUMP JUMPDEST SWAP3 POP PUSH1 0x20 DUP3 LT ISZERO PUSH3 0xA0E JUMPI PUSH3 0xA09 PUSH32 0xFFFFFFFFFFFFFFFFFFFFFFFFFFFFFFFFFFFFFFFFFFFFFFFFFFFFFFFFFFFFFFFF DUP4 PUSH1 0x20 SUB PUSH1 0x8 MUL PUSH3 0x558 JUMP JUMPDEST DUP4 AND SWAP3 POP JUMPDEST POP POP SWAP2 SWAP1 POP JUMP JUMPDEST PUSH1 0x80 MLOAD PUSH1 0xA0 MLOAD PUSH1 0xC0 MLOAD PUSH1 0xE0 MLOAD PUSH2 0x100 MLOAD PUSH2 0x120 MLOAD PUSH2 0x140 MLOAD PUSH2 0x2667 PUSH3 0xA67 PUSH0 CODECOPY PUSH0 PUSH2 0x11AC ADD MSTORE PUSH0 PUSH2 0x1171 ADD MSTORE PUSH0 PUSH2 0x1724 ADD MSTORE PUSH0 PUSH2 0x1703 ADD MSTORE PUSH0 PUSH2 0xFAC ADD MSTORE PUSH0 PUSH2 0x1002 ADD MSTORE PUSH0 PUSH2 0x102B ADD MSTORE PUSH2 0x2667 PUSH0 RETURN INVALID PUSH1 0x80 PUSH1 0x40 MSTORE PUSH1 0x4 CALLDATASIZE LT PUSH2 0x113 JUMPI PUSH0 CALLDATALOAD PUSH1 0xE0 SHR DUP1 PUSH4 0x715018A6 GT PUSH2 0x9F JUMPI DUP1 PUSH4 0xA9059CBB GT PUSH2 0x63 JUMPI DUP1 PUSH4 0xA9059CBB EQ PUSH2 0x39B JUMPI DUP1 PUSH4 0xC5EBEAEC EQ PUSH2 0x3D7 JUMPI DUP1 PUSH4 0xD505ACCF EQ PUSH2 0x3F3 JUMPI DUP1 PUSH4 0xDD62ED3E EQ PUSH2 0x41B JUMPI DUP1 PUSH4 0xF2FDE38B EQ PUSH2 0x457 JUMPI PUSH2 0x113 JUMP JUMPDEST DUP1 PUSH4 0x715018A6 EQ PUSH2 0x2C5 JUMPI DUP1 PUSH4 0x7ECEBE00 EQ PUSH2 0x2DB JUMPI DUP1 PUSH4 0x84B0196E EQ PUSH2 0x317 JUMPI DUP1 PUSH4 0x8DA5CB5B EQ PUSH2 0x347 JUMPI DUP1 PUSH4 0x95D89B41 EQ PUSH2 0x371 JUMPI PUSH2 0x113 JUMP JUMPDEST DUP1 PUSH4 0x2F865568 GT PUSH2 0xE6 JUMPI DUP1 PUSH4 0x2F865568 EQ PUSH2 0x1E3 JUMPI DUP1 PUSH4 0x313CE567 EQ PUSH2 0x20B JUMPI DUP1 PUSH4 0x3644E515 EQ PUSH2 0x235 JUMPI DUP1 PUSH4 0x67C9B017 EQ PUSH2 0x25F JUMPI DUP1 PUSH4 0x70A08231 EQ PUSH2 0x289 JUMPI PUSH2 0x113 JUMP JUMPDEST DUP1 PUSH4 0x6FDDE03 EQ PUSH2 0x117 JUMPI DUP1 PUSH4 0x95EA7B3 EQ PUSH2 0x141 JUMPI DUP1 PUSH4 0x18160DDD EQ PUSH2 0x17D JUMPI DUP1 PUSH4 0x23B872DD EQ PUSH2 0x1A7 JUMPI JUMPDEST PUSH0 DUP1 REVERT JUMPDEST CALLVALUE DUP1 ISZERO PUSH2 0x122 JUMPI PUSH0 DUP1 REVERT JUMPDEST POP PUSH2 0x12B PUSH2 0x47F JUMP JUMPDEST PUSH1 0x40 MLOAD PUSH2 0x138 SWAP2 SWAP1 PUSH2 0x1BF4 JUMP JUMPDEST PUSH1 0x40 MLOAD DUP1 SWAP2 SUB SWAP1 RETURN JUMPDEST CALLVALUE DUP1 ISZERO PUSH2 0x14C JUMPI PUSH0 DUP1 REVERT JUMPDEST POP PUSH2 0x167 PUSH1 0x4 DUP1 CALLDATASIZE SUB DUP2 ADD SWAP1 PUSH2 0x162 SWAP2 SWAP1 PUSH2 0x1CA5 JUMP JUMPDEST PUSH2 0x50F JUMP JUMPDEST PUSH1 0x40 MLOAD PUSH2 0x174 SWAP2 SWAP1 PUSH2 0x1CFD JUMP JUMPDEST PUSH1 0x40 MLOAD DUP1 SWAP2 SUB SWAP1 RETURN JUMPDEST CALLVALUE DUP1 ISZERO PUSH2 0x188 JUMPI PUSH0 DUP1 REVERT JUMPDEST POP PUSH2 0x191 PUSH2 0x531 JUMP JUMPDEST PUSH1 0x40 MLOAD PUSH2 0x19E SWAP2 SWAP1 PUSH2 0x1D25 JUMP JUMPDEST PUSH1 0x40 MLOAD DUP1 SWAP2 SUB SWAP1 RETURN JUMPDEST CALLVALUE DUP1 ISZERO PUSH2 0x1B2 JUMPI PUSH0 DUP1 REVERT JUMPDEST POP PUSH2 0x1CD PUSH1 0x4 DUP1 CALLDATASIZE SUB DUP2 ADD SWAP1 PUSH2 0x1C8 SWAP2 SWAP1 PUSH2 0x1D3E JUMP JUMPDEST PUSH2 0x53A JUMP JUMPDEST PUSH1 0x40 MLOAD PUSH2 0x1DA SWAP2 SWAP1 PUSH2 0x1CFD JUMP JUMPDEST PUSH1 0x40 MLOAD DUP1 SWAP2 SUB SWAP1 RETURN JUMPDEST CALLVALUE DUP1 ISZERO PUSH2 0x1EE JUMPI PUSH0 DUP1 REVERT JUMPDEST POP PUSH2 0x209 PUSH1 0x4 DUP1 CALLDATASIZE SUB DUP2 ADD SWAP1 PUSH2 0x204 SWAP2 SWAP1 PUSH2 0x1D8E JUMP JUMPDEST PUSH2 0x568 JUMP JUMPDEST STOP JUMPDEST CALLVALUE DUP1 ISZERO PUSH2 0x216 JUMPI PUSH0 DUP1 REVERT JUMPDEST POP PUSH2 0x21F PUSH2 0x763 JUMP JUMPDEST PUSH1 0x40 MLOAD PUSH2 0x22C SWAP2 SWAP1 PUSH2 0x1DD4 JUMP JUMPDEST PUSH1 0x40 MLOAD DUP1 SWAP2 SUB SWAP1 RETURN JUMPDEST CALLVALUE DUP1 ISZERO PUSH2 0x240 JUMPI PUSH0 DUP1 REVERT JUMPDEST POP PUSH2 0x249 PUSH2 0x76B JUMP JUMPDEST PUSH1 0x40 MLOAD PUSH2 0x256 SWAP2 SWAP1 PUSH2 0x1E05 JUMP JUMPDEST PUSH1 0x40 MLOAD DUP1 SWAP2 SUB SWAP1 RETURN JUMPDEST CALLVALUE DUP1 ISZERO PUSH2 0x26A JUMPI PUSH0 DUP1 REVERT JUMPDEST POP PUSH2 0x273 PUSH2 0x779 JUMP JUMPDEST PUSH1 0x40 MLOAD PUSH2 0x280 SWAP2 SWAP1 PUSH2 0x1D25 JUMP JUMPDEST PUSH1 0x40 MLOAD DUP1 SWAP2 SUB SWAP1 RETURN JUMPDEST CALLVALUE DUP1 ISZERO PUSH2 0x294 JUMPI PUSH0 DUP1 REVERT JUMPDEST POP PUSH2 0x2AF PUSH1 0x4 DUP1 CALLDATASIZE SUB DUP2 ADD SWAP1 PUSH2 0x2AA SWAP2 SWAP1 PUSH2 0x1D8E JUMP JUMPDEST PUSH2 0x816 JUMP JUMPDEST PUSH1 0x40 MLOAD PUSH2 0x2BC SWAP2 SWAP1 PUSH2 0x1D25 JUMP JUMPDEST PUSH1 0x40 MLOAD DUP1 SWAP2 SUB SWAP1 RETURN JUMPDEST CALLVALUE DUP1 ISZERO PUSH2 0x2D0 JUMPI PUSH0 DUP1 REVERT JUMPDEST POP PUSH2 0x2D9 PUSH2 0x85B JUMP JUMPDEST STOP JUMPDEST CALLVALUE DUP1 ISZERO PUSH2 0x2E6 JUMPI PUSH0 DUP1 REVERT JUMPDEST POP PUSH2 0x301 PUSH1 0x4 DUP1 CALLDATASIZE SUB DUP2 ADD SWAP1 PUSH2 0x2FC SWAP2 SWAP1 PUSH2 0x1D8E JUMP JUMPDEST PUSH2 0x86E JUMP JUMPDEST PUSH1 0x40 MLOAD PUSH2 0x30E SWAP2 SWAP1 PUSH2 0x1D25 JUMP JUMPDEST PUSH1 0x40 MLOAD DUP1 SWAP2 SUB SWAP1 RETURN JUMPDEST CALLVALUE DUP1 ISZERO PUSH2 0x322 JUMPI PUSH0 DUP1 REVERT JUMPDEST POP PUSH2 0x32B PUSH2 0x87F JUMP JUMPDEST PUSH1 0x40 MLOAD PUSH2 0x33E SWAP8 SWAP7 SWAP6 SWAP5 SWAP4 SWAP3 SWAP2 SWAP1 PUSH2 0x1F1E JUMP JUMPDEST PUSH1 0x40 MLOAD DUP1 SWAP2 SUB SWAP1 RETURN JUMPDEST CALLVALUE DUP1 ISZERO PUSH2 0x352 JUMPI PUSH0 DUP1 REVERT JUMPDEST POP PUSH2 0x35B PUSH2 0x924 JUMP JUMPDEST PUSH1 0x40 MLOAD PUSH2 0x368 SWAP2 SWAP1 PUSH2 0x1FA0 JUMP JUMPDEST PUSH1 0x40 MLOAD DUP1 SWAP2 SUB SWAP1 RETURN JUMPDEST CALLVALUE DUP1 ISZERO PUSH2 0x37C JUMPI PUSH0 DUP1 REVERT JUMPDEST POP PUSH2 0x385 PUSH2 0x94C JUMP JUMPDEST PUSH1 0x40 MLOAD PUSH2 0x392 SWAP2 SWAP1 PUSH2 0x1BF4 JUMP JUMPDEST PUSH1 0x40 MLOAD DUP1 SWAP2 SUB SWAP1 RETURN JUMPDEST CALLVALUE DUP1 ISZERO PUSH2 0x3A6 JUMPI PUSH0 DUP1 REVERT JUMPDEST POP PUSH2 0x3C1 PUSH1 0x4 DUP1 CALLDATASIZE SUB DUP2 ADD SWAP1 PUSH2 0x3BC SWAP2 SWAP1 PUSH2 0x1CA5 JUMP JUMPDEST PUSH2 0x9DC JUMP JUMPDEST PUSH1 0x40 MLOAD PUSH2 0x3CE SWAP2 SWAP1 PUSH2 0x1CFD JUMP JUMPDEST PUSH1 0x40 MLOAD DUP1 SWAP2 SUB SWAP1 RETURN JUMPDEST PUSH2 0x3F1 PUSH1 0x4 DUP1 CALLDATASIZE SUB DUP2 ADD SWAP1 PUSH2 0x3EC SWAP2 SWAP1 PUSH2 0x1FB9 JUMP JUMPDEST PUSH2 0x9FE JUMP JUMPDEST STOP JUMPDEST CALLVALUE DUP1 ISZERO PUSH2 0x3FE JUMPI PUSH0 DUP1 REVERT JUMPDEST POP PUSH2 0x419 PUSH1 0x4 DUP1 CALLDATASIZE SUB DUP2 ADD SWAP1 PUSH2 0x414 SWAP2 SWAP1 PUSH2 0x2038 JUMP JUMPDEST PUSH2 0xB3C JUMP JUMPDEST STOP JUMPDEST CALLVALUE DUP1 ISZERO PUSH2 0x426 JUMPI PUSH0 DUP1 REVERT JUMPDEST POP PUSH2 0x441 PUSH1 0x4 DUP1 CALLDATASIZE SUB DUP2 ADD SWAP1 PUSH2 0x43C SWAP2 SWAP1 PUSH2 0x20D5 JUMP JUMPDEST PUSH2 0xC81 JUMP JUMPDEST PUSH1 0x40 MLOAD PUSH2 0x44E SWAP2 SWAP1 PUSH2 0x1D25 JUMP JUMPDEST PUSH1 0x40 MLOAD DUP1 SWAP2 SUB SWAP1 RETURN JUMPDEST CALLVALUE DUP1 ISZERO PUSH2 0x462 JUMPI PUSH0 DUP1 REVERT JUMPDEST POP PUSH2 0x47D PUSH1 0x4 DUP1 CALLDATASIZE SUB DUP2 ADD SWAP1 PUSH2 0x478 SWAP2 SWAP1 PUSH2 0x1D8E JUMP JUMPDEST PUSH2 0xD03 JUMP JUMPDEST STOP JUMPDEST PUSH1 0x60 PUSH1 0x3 DUP1 SLOAD PUSH2 0x48E SWAP1 PUSH2 0x2140 JUMP JUMPDEST DUP1 PUSH1 0x1F ADD PUSH1 0x20 DUP1 SWAP2 DIV MUL PUSH1 0x20 ADD PUSH1 0x40 MLOAD SWAP1 DUP2 ADD PUSH1 0x40 MSTORE DUP1 SWAP3 SWAP2 SWAP1 DUP2 DUP2 MSTORE PUSH1 0x20 ADD DUP3 DUP1 SLOAD PUSH2 0x4BA SWAP1 PUSH2 0x2140 JUMP JUMPDEST DUP1 ISZERO PUSH2 0x505 JUMPI DUP1 PUSH1 0x1F LT PUSH2 0x4DC JUMPI PUSH2 0x100 DUP1 DUP4 SLOAD DIV MUL DUP4 MSTORE SWAP2 PUSH1 0x20 ADD SWAP2 PUSH2 0x505 JUMP JUMPDEST DUP3 ADD SWAP2 SWAP1 PUSH0 MSTORE PUSH1 0x20 PUSH0 KECCAK256 SWAP1 JUMPDEST DUP2 SLOAD DUP2 MSTORE SWAP1 PUSH1 0x1 ADD SWAP1 PUSH1 0x20 ADD DUP1 DUP4 GT PUSH2 0x4E8 JUMPI DUP3 SWAP1 SUB PUSH1 0x1F AND DUP3 ADD SWAP2 JUMPDEST POP POP POP POP POP SWAP1 POP SWAP1 JUMP JUMPDEST PUSH0 DUP1 PUSH2 0x519 PUSH2 0xD87 JUMP JUMPDEST SWAP1 POP PUSH2 0x526 DUP2 DUP6 DUP6 PUSH2 0xD8E JUMP JUMPDEST PUSH1 0x1 SWAP2 POP POP SWAP3 SWAP2 POP POP JUMP JUMPDEST PUSH0 PUSH1 0x2 SLOAD SWAP1 POP SWAP1 JUMP JUMPDEST PUSH0 DUP1 PUSH2 0x544 PUSH2 0xD87 JUMP JUMPDEST SWAP1 POP PUSH2 0x551 DUP6 DUP3 DUP6 PUSH2 0xDA0 JUMP JUMPDEST PUSH2 0x55C DUP6 DUP6 DUP6 PUSH2 0xE32 JUMP JUMPDEST PUSH1 0x1 SWAP2 POP POP SWAP4 SWAP3 POP POP POP JUMP JUMPDEST PUSH2 0x570 PUSH2 0xF22 JUMP JUMPDEST PUSH1 0x55 PUSH1 0x64 PUSH1 0x9 PUSH0 DUP5 PUSH20 0xFFFFFFFFFFFFFFFFFFFFFFFFFFFFFFFFFFFFFFFF AND PUSH20 0xFFFFFFFFFFFFFFFFFFFFFFFFFFFFFFFFFFFFFFFF AND DUP2 MSTORE PUSH1 0x20 ADD SWAP1 DUP2 MSTORE PUSH1 0x20 ADD PUSH0 KECCAK256 PUSH1 0x1 ADD SLOAD PUSH2 0x5BD PUSH2 0x779 JUMP JUMPDEST PUSH2 0x5C7 SWAP2 SWAP1 PUSH2 0x219D JUMP JUMPDEST PUSH1 0x9 PUSH0 DUP6 PUSH20 0xFFFFFFFFFFFFFFFFFFFFFFFFFFFFFFFFFFFFFFFF AND PUSH20 0xFFFFFFFFFFFFFFFFFFFFFFFFFFFFFFFFFFFFFFFF AND DUP2 MSTORE PUSH1 0x20 ADD SWAP1 DUP2 MSTORE PUSH1 0x20 ADD PUSH0 KECCAK256 PUSH0 ADD SLOAD PUSH2 0x611 SWAP2 SWAP1 PUSH2 0x220B JUMP JUMPDEST PUSH2 0x61B SWAP2 SWAP1 PUSH2 0x219D JUMP JUMPDEST LT ISZERO PUSH2 0x65C JUMPI PUSH1 0x40 MLOAD PUSH32 0x8C379A000000000000000000000000000000000000000000000000000000000 DUP2 MSTORE PUSH1 0x4 ADD PUSH2 0x653 SWAP1 PUSH2 0x22AB JUMP JUMPDEST PUSH1 0x40 MLOAD DUP1 SWAP2 SUB SWAP1 REVERT JUMPDEST PUSH0 PUSH1 0x9 PUSH0 DUP4 PUSH20 0xFFFFFFFFFFFFFFFFFFFFFFFFFFFFFFFFFFFFFFFF AND PUSH20 0xFFFFFFFFFFFFFFFFFFFFFFFFFFFFFFFFFFFFFFFF AND DUP2 MSTORE PUSH1 0x20 ADD SWAP1 DUP2 MSTORE PUSH1 0x20 ADD PUSH0 KECCAK256 PUSH1 0x1 ADD SLOAD SWAP1 POP PUSH1 0x40 MLOAD DUP1 PUSH1 0x40 ADD PUSH1 0x40 MSTORE DUP1 PUSH0 DUP2 MSTORE PUSH1 0x20 ADD PUSH0 DUP2 MSTORE POP PUSH1 0x9 PUSH0 DUP5 PUSH20 0xFFFFFFFFFFFFFFFFFFFFFFFFFFFFFFFFFFFFFFFF AND PUSH20 0xFFFFFFFFFFFFFFFFFFFFFFFFFFFFFFFFFFFFFFFF AND DUP2 MSTORE PUSH1 0x20 ADD SWAP1 DUP2 MSTORE PUSH1 0x20 ADD PUSH0 KECCAK256 PUSH0 DUP3 ADD MLOAD DUP2 PUSH0 ADD SSTORE PUSH1 0x20 DUP3 ADD MLOAD DUP2 PUSH1 0x1 ADD SSTORE SWAP1 POP POP PUSH2 0x70F PUSH2 0xD87 JUMP JUMPDEST PUSH20 0xFFFFFFFFFFFFFFFFFFFFFFFFFFFFFFFFFFFFFFFF AND PUSH32 0xD9D00ED0DECBA63A0AD16A878DE20D30A429554F47B378787A818B7284DA17B5 DUP3 PUSH1 0x1 PUSH1 0x40 MLOAD PUSH2 0x757 SWAP3 SWAP2 SWAP1 PUSH2 0x22C9 JUMP JUMPDEST PUSH1 0x40 MLOAD DUP1 SWAP2 SUB SWAP1 LOG2 POP POP JUMP JUMPDEST PUSH0 PUSH1 0x12 SWAP1 POP SWAP1 JUMP JUMPDEST PUSH0 PUSH2 0x774 PUSH2 0xFA9 JUMP JUMPDEST SWAP1 POP SWAP1 JUMP JUMPDEST PUSH0 DUP1 PUSH1 0xA PUSH0 SWAP1 SLOAD SWAP1 PUSH2 0x100 EXP SWAP1 DIV PUSH20 0xFFFFFFFFFFFFFFFFFFFFFFFFFFFFFFFFFFFFFFFF AND PUSH20 0xFFFFFFFFFFFFFFFFFFFFFFFFFFFFFFFFFFFFFFFF AND PUSH4 0xFEAF968C PUSH1 0x40 MLOAD DUP2 PUSH4 0xFFFFFFFF AND PUSH1 0xE0 SHL DUP2 MSTORE PUSH1 0x4 ADD PUSH1 0xA0 PUSH1 0x40 MLOAD DUP1 DUP4 SUB DUP2 DUP7 GAS STATICCALL ISZERO DUP1 ISZERO PUSH2 0x7E5 JUMPI RETURNDATASIZE PUSH0 DUP1 RETURNDATACOPY RETURNDATASIZE PUSH0 REVERT JUMPDEST POP POP POP POP PUSH1 0x40 MLOAD RETURNDATASIZE PUSH1 0x1F NOT PUSH1 0x1F DUP3 ADD AND DUP3 ADD DUP1 PUSH1 0x40 MSTORE POP DUP2 ADD SWAP1 PUSH2 0x809 SWAP2 SWAP1 PUSH2 0x2376 JUMP JUMPDEST POP POP POP SWAP2 POP POP DUP1 SWAP2 POP POP SWAP1 JUMP JUMPDEST PUSH0 DUP1 PUSH0 DUP4 PUSH20 0xFFFFFFFFFFFFFFFFFFFFFFFFFFFFFFFFFFFFFFFF AND PUSH20 0xFFFFFFFFFFFFFFFFFFFFFFFFFFFFFFFFFFFFFFFF AND DUP2 MSTORE PUSH1 0x20 ADD SWAP1 DUP2 MSTORE PUSH1 0x20 ADD PUSH0 KECCAK256 SLOAD SWAP1 POP SWAP2 SWAP1 POP JUMP JUMPDEST PUSH2 0x863 PUSH2 0xF22 JUMP JUMPDEST PUSH2 0x86C PUSH0 PUSH2 0x105F JUMP JUMPDEST JUMP JUMPDEST PUSH0 PUSH2 0x878 DUP3 PUSH2 0x1122 JUMP JUMPDEST SWAP1 POP SWAP2 SWAP1 POP JUMP JUMPDEST PUSH0 PUSH1 0x60 DUP1 PUSH0 DUP1 PUSH0 PUSH1 0x60 PUSH2 0x890 PUSH2 0x1168 JUMP JUMPDEST PUSH2 0x898 PUSH2 0x11A3 JUMP JUMPDEST CHAINID ADDRESS PUSH0 DUP1 SHL PUSH0 PUSH8 0xFFFFFFFFFFFFFFFF DUP2 GT ISZERO PUSH2 0x8B7 JUMPI PUSH2 0x8B6 PUSH2 0x23ED JUMP JUMPDEST JUMPDEST PUSH1 0x40 MLOAD SWAP1 DUP1 DUP3 MSTORE DUP1 PUSH1 0x20 MUL PUSH1 0x20 ADD DUP3 ADD PUSH1 0x40 MSTORE DUP1 ISZERO PUSH2 0x8E5 JUMPI DUP2 PUSH1 0x20 ADD PUSH1 0x20 DUP3 MUL DUP1 CALLDATASIZE DUP4 CALLDATACOPY DUP1 DUP3 ADD SWAP2 POP POP SWAP1 POP JUMPDEST POP PUSH32 0xF00000000000000000000000000000000000000000000000000000000000000 SWAP6 SWAP5 SWAP4 SWAP3 SWAP2 SWAP1 SWAP7 POP SWAP7 POP SWAP7 POP SWAP7 POP SWAP7 POP SWAP7 POP SWAP7 POP SWAP1 SWAP2 SWAP3 SWAP4 SWAP5 SWAP6 SWAP7 JUMP JUMPDEST PUSH0 PUSH1 0x8 PUSH0 SWAP1 SLOAD SWAP1 PUSH2 0x100 EXP SWAP1 DIV PUSH20 0xFFFFFFFFFFFFFFFFFFFFFFFFFFFFFFFFFFFFFFFF AND SWAP1 POP SWAP1 JUMP JUMPDEST PUSH1 0x60 PUSH1 0x4 DUP1 SLOAD PUSH2 0x95B SWAP1 PUSH2 0x2140 JUMP JUMPDEST DUP1 PUSH1 0x1F ADD PUSH1 0x20 DUP1 SWAP2 DIV MUL PUSH1 0x20 ADD PUSH1 0x40 MLOAD SWAP1 DUP2 ADD PUSH1 0x40 MSTORE DUP1 SWAP3 SWAP2 SWAP1 DUP2 DUP2 MSTORE PUSH1 0x20 ADD DUP3 DUP1 SLOAD PUSH2 0x987 SWAP1 PUSH2 0x2140 JUMP JUMPDEST DUP1 ISZERO PUSH2 0x9D2 JUMPI DUP1 PUSH1 0x1F LT PUSH2 0x9A9 JUMPI PUSH2 0x100 DUP1 DUP4 SLOAD DIV MUL DUP4 MSTORE SWAP2 PUSH1 0x20 ADD SWAP2 PUSH2 0x9D2 JUMP JUMPDEST DUP3 ADD SWAP2 SWAP1 PUSH0 MSTORE PUSH1 0x20 PUSH0 KECCAK256 SWAP1 JUMPDEST DUP2 SLOAD DUP2 MSTORE SWAP1 PUSH1 0x1 ADD SWAP1 PUSH1 0x20 ADD DUP1 DUP4 GT PUSH2 0x9B5 JUMPI DUP3 SWAP1 SUB PUSH1 0x1F AND DUP3 ADD SWAP2 JUMPDEST POP POP POP POP POP SWAP1 POP SWAP1 JUMP JUMPDEST PUSH0 DUP1 PUSH2 0x9E6 PUSH2 0xD87 JUMP JUMPDEST SWAP1 POP PUSH2 0x9F3 DUP2 DUP6 DUP6 PUSH2 0xE32 JUMP JUMPDEST PUSH1 0x1 SWAP2 POP POP SWAP3 SWAP2 POP POP JUMP JUMPDEST PUSH1 0x4B DUP2 GT ISZERO PUSH2 0xA42 JUMPI PUSH1 0x40 MLOAD PUSH32 0x8C379A000000000000000000000000000000000000000000000000000000000 DUP2 MSTORE PUSH1 0x4 ADD PUSH2 0xA39 SWAP1 PUSH2 0x2464 JUMP JUMPDEST PUSH1 0x40 MLOAD DUP1 SWAP2 SUB SWAP1 REVERT JUMPDEST PUSH0 CALLVALUE PUSH2 0xA4C PUSH2 0x779 JUMP JUMPDEST PUSH2 0xA56 SWAP2 SWAP1 PUSH2 0x219D JUMP JUMPDEST SWAP1 POP PUSH0 DUP3 DUP3 PUSH2 0xA65 SWAP2 SWAP1 PUSH2 0x219D JUMP JUMPDEST SWAP1 POP PUSH1 0x40 MLOAD DUP1 PUSH1 0x40 ADD PUSH1 0x40 MSTORE DUP1 DUP3 DUP2 MSTORE PUSH1 0x20 ADD DUP4 DUP2 MSTORE POP PUSH1 0x9 PUSH0 CALLER PUSH20 0xFFFFFFFFFFFFFFFFFFFFFFFFFFFFFFFFFFFFFFFF AND PUSH20 0xFFFFFFFFFFFFFFFFFFFFFFFFFFFFFFFFFFFFFFFF AND DUP2 MSTORE PUSH1 0x20 ADD SWAP1 DUP2 MSTORE PUSH1 0x20 ADD PUSH0 KECCAK256 PUSH0 DUP3 ADD MLOAD DUP2 PUSH0 ADD SSTORE PUSH1 0x20 DUP3 ADD MLOAD DUP2 PUSH1 0x1 ADD SSTORE SWAP1 POP POP PUSH2 0xADF PUSH2 0xAD9 PUSH2 0xD87 JUMP JUMPDEST DUP3 PUSH2 0x11DE JUMP JUMPDEST PUSH2 0xAE7 PUSH2 0xD87 JUMP JUMPDEST PUSH20 0xFFFFFFFFFFFFFFFFFFFFFFFFFFFFFFFFFFFFFFFF AND PUSH32 0xD9D00ED0DECBA63A0AD16A878DE20D30A429554F47B378787A818B7284DA17B5 DUP3 PUSH1 0x1 PUSH1 0x40 MLOAD PUSH2 0xB2F SWAP3 SWAP2 SWAP1 PUSH2 0x22C9 JUMP JUMPDEST PUSH1 0x40 MLOAD DUP1 SWAP2 SUB SWAP1 LOG2 POP POP POP JUMP JUMPDEST DUP4 TIMESTAMP GT ISZERO PUSH2 0xB81 JUMPI DUP4 PUSH1 0x40 MLOAD PUSH32 0x6279130200000000000000000000000000000000000000000000000000000000 DUP2 MSTORE PUSH1 0x4 ADD PUSH2 0xB78 SWAP2 SWAP1 PUSH2 0x1D25 JUMP JUMPDEST PUSH1 0x40 MLOAD DUP1 SWAP2 SUB SWAP1 REVERT JUMPDEST PUSH0 PUSH32 0x6E71EDAE12B1B97F4D1F60370FEF10105FA2FAAE0126114A169C64845D6126C9 DUP9 DUP9 DUP9 PUSH2 0xBAF DUP13 PUSH2 0x125D JUMP JUMPDEST DUP10 PUSH1 0x40 MLOAD PUSH1 0x20 ADD PUSH2 0xBC5 SWAP7 SWAP6 SWAP5 SWAP4 SWAP3 SWAP2 SWAP1 PUSH2 0x2482 JUMP JUMPDEST PUSH1 0x40 MLOAD PUSH1 0x20 DUP2 DUP4 SUB SUB DUP2 MSTORE SWAP1 PUSH1 0x40 MSTORE DUP1 MLOAD SWAP1 PUSH1 0x20 ADD KECCAK256 SWAP1 POP PUSH0 PUSH2 0xBE7 DUP3 PUSH2 0x12B0 JUMP JUMPDEST SWAP1 POP PUSH0 PUSH2 0xBF6 DUP3 DUP8 DUP8 DUP8 PUSH2 0x12C9 JUMP JUMPDEST SWAP1 POP DUP10 PUSH20 0xFFFFFFFFFFFFFFFFFFFFFFFFFFFFFFFFFFFFFFFF AND DUP2 PUSH20 0xFFFFFFFFFFFFFFFFFFFFFFFFFFFFFFFFFFFFFFFF AND EQ PUSH2 0xC6A JUMPI DUP1 DUP11 PUSH1 0x40 MLOAD PUSH32 0x4B800E4600000000000000000000000000000000000000000000000000000000 DUP2 MSTORE PUSH1 0x4 ADD PUSH2 0xC61 SWAP3 SWAP2 SWAP1 PUSH2 0x24E1 JUMP JUMPDEST PUSH1 0x40 MLOAD DUP1 SWAP2 SUB SWAP1 REVERT JUMPDEST PUSH2 0xC75 DUP11 DUP11 DUP11 PUSH2 0xD8E JUMP JUMPDEST POP POP POP POP POP POP POP POP POP POP JUMP JUMPDEST PUSH0 PUSH1 0x1 PUSH0 DUP5 PUSH20 0xFFFFFFFFFFFFFFFFFFFFFFFFFFFFFFFFFFFFFFFF AND PUSH20 0xFFFFFFFFFFFFFFFFFFFFFFFFFFFFFFFFFFFFFFFF AND DUP2 MSTORE PUSH1 0x20 ADD SWAP1 DUP2 MSTORE PUSH1 0x20 ADD PUSH0 KECCAK256 PUSH0 DUP4 PUSH20 0xFFFFFFFFFFFFFFFFFFFFFFFFFFFFFFFFFFFFFFFF AND PUSH20 0xFFFFFFFFFFFFFFFFFFFFFFFFFFFFFFFFFFFFFFFF AND DUP2 MSTORE PUSH1 0x20 ADD SWAP1 DUP2 MSTORE PUSH1 0x20 ADD PUSH0 KECCAK256 SLOAD SWAP1 POP SWAP3 SWAP2 POP POP JUMP JUMPDEST PUSH2 0xD0B PUSH2 0xF22 JUMP JUMPDEST PUSH0 PUSH20 0xFFFFFFFFFFFFFFFFFFFFFFFFFFFFFFFFFFFFFFFF AND DUP2 PUSH20 0xFFFFFFFFFFFFFFFFFFFFFFFFFFFFFFFFFFFFFFFF AND SUB PUSH2 0xD7B JUMPI PUSH0 PUSH1 0x40 MLOAD PUSH32 0x1E4FBDF700000000000000000000000000000000000000000000000000000000 DUP2 MSTORE PUSH1 0x4 ADD PUSH2 0xD72 SWAP2 SWAP1 PUSH2 0x1FA0 JUMP JUMPDEST PUSH1 0x40 MLOAD DUP1 SWAP2 SUB SWAP1 REVERT JUMPDEST PUSH2 0xD84 DUP2 PUSH2 0x105F JUMP JUMPDEST POP JUMP JUMPDEST PUSH0 CALLER SWAP1 POP SWAP1 JUMP JUMPDEST PUSH2 0xD9B DUP4 DUP4 DUP4 PUSH1 0x1 PUSH2 0x12F7 JUMP JUMPDEST POP POP POP JUMP JUMPDEST PUSH0 PUSH2 0xDAB DUP5 DUP5 PUSH2 0xC81 JUMP JUMPDEST SWAP1 POP PUSH32 0xFFFFFFFFFFFFFFFFFFFFFFFFFFFFFFFFFFFFFFFFFFFFFFFFFFFFFFFFFFFFFFFF DUP2 EQ PUSH2 0xE2C JUMPI DUP2 DUP2 LT ISZERO PUSH2 0xE1D JUMPI DUP3 DUP2 DUP4 PUSH1 0x40 MLOAD PUSH32 0xFB8F41B200000000000000000000000000000000000000000000000000000000 DUP2 MSTORE PUSH1 0x4 ADD PUSH2 0xE14 SWAP4 SWAP3 SWAP2 SWAP1 PUSH2 0x2508 JUMP JUMPDEST PUSH1 0x40 MLOAD DUP1 SWAP2 SUB SWAP1 REVERT JUMPDEST PUSH2 0xE2B DUP5 DUP5 DUP5 DUP5 SUB PUSH0 PUSH2 0x12F7 JUMP JUMPDEST JUMPDEST POP POP POP POP JUMP JUMPDEST PUSH0 PUSH20 0xFFFFFFFFFFFFFFFFFFFFFFFFFFFFFFFFFFFFFFFF AND DUP4 PUSH20 0xFFFFFFFFFFFFFFFFFFFFFFFFFFFFFFFFFFFFFFFF AND SUB PUSH2 0xEA2 JUMPI PUSH0 PUSH1 0x40 MLOAD PUSH32 0x96C6FD1E00000000000000000000000000000000000000000000000000000000 DUP2 MSTORE PUSH1 0x4 ADD PUSH2 0xE99 SWAP2 SWAP1 PUSH2 0x1FA0 JUMP JUMPDEST PUSH1 0x40 MLOAD DUP1 SWAP2 SUB SWAP1 REVERT JUMPDEST PUSH0 PUSH20 0xFFFFFFFFFFFFFFFFFFFFFFFFFFFFFFFFFFFFFFFF AND DUP3 PUSH20 0xFFFFFFFFFFFFFFFFFFFFFFFFFFFFFFFFFFFFFFFF AND SUB PUSH2 0xF12 JUMPI PUSH0 PUSH1 0x40 MLOAD PUSH32 0xEC442F0500000000000000000000000000000000000000000000000000000000 DUP2 MSTORE PUSH1 0x4 ADD PUSH2 0xF09 SWAP2 SWAP1 PUSH2 0x1FA0 JUMP JUMPDEST PUSH1 0x40 MLOAD DUP1 SWAP2 SUB SWAP1 REVERT JUMPDEST PUSH2 0xF1D DUP4 DUP4 DUP4 PUSH2 0x14C6 JUMP JUMPDEST POP POP POP JUMP JUMPDEST PUSH2 0xF2A PUSH2 0xD87 JUMP JUMPDEST PUSH20 0xFFFFFFFFFFFFFFFFFFFFFFFFFFFFFFFFFFFFFFFF AND PUSH2 0xF48 PUSH2 0x924 JUMP JUMPDEST PUSH20 0xFFFFFFFFFFFFFFFFFFFFFFFFFFFFFFFFFFFFFFFF AND EQ PUSH2 0xFA7 JUMPI PUSH2 0xF6B PUSH2 0xD87 JUMP JUMPDEST PUSH1 0x40 MLOAD PUSH32 0x118CDAA700000000000000000000000000000000000000000000000000000000 DUP2 MSTORE PUSH1 0x4 ADD PUSH2 0xF9E SWAP2 SWAP1 PUSH2 0x1FA0 JUMP JUMPDEST PUSH1 0x40 MLOAD DUP1 SWAP2 SUB SWAP1 REVERT JUMPDEST JUMP JUMPDEST PUSH0 PUSH32 0x0 PUSH20 0xFFFFFFFFFFFFFFFFFFFFFFFFFFFFFFFFFFFFFFFF AND ADDRESS PUSH20 0xFFFFFFFFFFFFFFFFFFFFFFFFFFFFFFFFFFFFFFFF AND EQ DUP1 ISZERO PUSH2 0x1024 JUMPI POP PUSH32 0x0 CHAINID EQ JUMPDEST ISZERO PUSH2 0x1051 JUMPI PUSH32 0x0 SWAP1 POP PUSH2 0x105C JUMP JUMPDEST PUSH2 0x1059 PUSH2 0x16DF JUMP JUMPDEST SWAP1 POP JUMPDEST SWAP1 JUMP JUMPDEST PUSH0 PUSH1 0x8 PUSH0 SWAP1 SLOAD SWAP1 PUSH2 0x100 EXP SWAP1 DIV PUSH20 0xFFFFFFFFFFFFFFFFFFFFFFFFFFFFFFFFFFFFFFFF AND SWAP1 POP DUP2 PUSH1 0x8 PUSH0 PUSH2 0x100 EXP DUP2 SLOAD DUP2 PUSH20 0xFFFFFFFFFFFFFFFFFFFFFFFFFFFFFFFFFFFFFFFF MUL NOT AND SWAP1 DUP4 PUSH20 0xFFFFFFFFFFFFFFFFFFFFFFFFFFFFFFFFFFFFFFFF AND MUL OR SWAP1 SSTORE POP DUP2 PUSH20 0xFFFFFFFFFFFFFFFFFFFFFFFFFFFFFFFFFFFFFFFF AND DUP2 PUSH20 0xFFFFFFFFFFFFFFFFFFFFFFFFFFFFFFFFFFFFFFFF AND PUSH32 0x8BE0079C531659141344CD1FD0A4F28419497F9722A3DAAFE3B4186F6B6457E0 PUSH1 0x40 MLOAD PUSH1 0x40 MLOAD DUP1 SWAP2 SUB SWAP1 LOG3 POP POP JUMP JUMPDEST PUSH0 PUSH1 0x7 PUSH0 DUP4 PUSH20 0xFFFFFFFFFFFFFFFFFFFFFFFFFFFFFFFFFFFFFFFF AND PUSH20 0xFFFFFFFFFFFFFFFFFFFFFFFFFFFFFFFFFFFFFFFF AND DUP2 MSTORE PUSH1 0x20 ADD SWAP1 DUP2 MSTORE PUSH1 0x20 ADD PUSH0 KECCAK256 SLOAD SWAP1 POP SWAP2 SWAP1 POP JUMP JUMPDEST PUSH1 0x60 PUSH2 0x119E PUSH1 0x5 PUSH32 0x0 PUSH2 0x1774 SWAP1 SWAP2 SWAP1 PUSH4 0xFFFFFFFF AND JUMP JUMPDEST SWAP1 POP SWAP1 JUMP JUMPDEST PUSH1 0x60 PUSH2 0x11D9 PUSH1 0x6 PUSH32 0x0 PUSH2 0x1774 SWAP1 SWAP2 SWAP1 PUSH4 0xFFFFFFFF AND JUMP JUMPDEST SWAP1 POP SWAP1 JUMP JUMPDEST PUSH0 PUSH20 0xFFFFFFFFFFFFFFFFFFFFFFFFFFFFFFFFFFFFFFFF AND DUP3 PUSH20 0xFFFFFFFFFFFFFFFFFFFFFFFFFFFFFFFFFFFFFFFF AND SUB PUSH2 0x124E JUMPI PUSH0 PUSH1 0x40 MLOAD PUSH32 0xEC442F0500000000000000000000000000000000000000000000000000000000 DUP2 MSTORE PUSH1 0x4 ADD PUSH2 0x1245 SWAP2 SWAP1 PUSH2 0x1FA0 JUMP JUMPDEST PUSH1 0x40 MLOAD DUP1 SWAP2 SUB SWAP1 REVERT JUMPDEST PUSH2 0x1259 PUSH0 DUP4 DUP4 PUSH2 0x14C6 JUMP JUMPDEST POP POP JUMP JUMPDEST PUSH0 PUSH1 0x7 PUSH0 DUP4 PUSH20 0xFFFFFFFFFFFFFFFFFFFFFFFFFFFFFFFFFFFFFFFF AND PUSH20 0xFFFFFFFFFFFFFFFFFFFFFFFFFFFFFFFFFFFFFFFF AND DUP2 MSTORE PUSH1 0x20 ADD SWAP1 DUP2 MSTORE PUSH1 0x20 ADD PUSH0 KECCAK256 PUSH0 DUP2 SLOAD DUP1 SWAP3 SWAP2 SWAP1 PUSH1 0x1 ADD SWAP2 SWAP1 POP SSTORE SWAP1 POP SWAP2 SWAP1 POP JUMP JUMPDEST PUSH0 PUSH2 0x12C2 PUSH2 0x12BC PUSH2 0xFA9 JUMP JUMPDEST DUP4 PUSH2 0x1821 JUMP JUMPDEST SWAP1 POP SWAP2 SWAP1 POP JUMP JUMPDEST PUSH0 DUP1 PUSH0 DUP1 PUSH2 0x12D9 DUP9 DUP9 DUP9 DUP9 PUSH2 0x1861 JUMP JUMPDEST SWAP3 POP SWAP3 POP SWAP3 POP PUSH2 0x12E9 DUP3 DUP3 PUSH2 0x1948 JUMP JUMPDEST DUP3 SWAP4 POP POP POP POP SWAP5 SWAP4 POP POP POP POP JUMP JUMPDEST PUSH0 PUSH20 0xFFFFFFFFFFFFFFFFFFFFFFFFFFFFFFFFFFFFFFFF AND DUP5 PUSH20 0xFFFFFFFFFFFFFFFFFFFFFFFFFFFFFFFFFFFFFFFF AND SUB PUSH2 0x1367 JUMPI PUSH0 PUSH1 0x40 MLOAD PUSH32 0xE602DF0500000000000000000000000000000000000000000000000000000000 DUP2 MSTORE PUSH1 0x4 ADD PUSH2 0x135E SWAP2 SWAP1 PUSH2 0x1FA0 JUMP JUMPDEST PUSH1 0x40 MLOAD DUP1 SWAP2 SUB SWAP1 REVERT JUMPDEST PUSH0 PUSH20 0xFFFFFFFFFFFFFFFFFFFFFFFFFFFFFFFFFFFFFFFF AND DUP4 PUSH20 0xFFFFFFFFFFFFFFFFFFFFFFFFFFFFFFFFFFFFFFFF AND SUB PUSH2 0x13D7 JUMPI PUSH0 PUSH1 0x40 MLOAD PUSH32 0x94280D6200000000000000000000000000000000000000000000000000000000 DUP2 MSTORE PUSH1 0x4 ADD PUSH2 0x13CE SWAP2 SWAP1 PUSH2 0x1FA0 JUMP JUMPDEST PUSH1 0x40 MLOAD DUP1 SWAP2 SUB SWAP1 REVERT JUMPDEST DUP2 PUSH1 0x1 PUSH0 DUP7 PUSH20 0xFFFFFFFFFFFFFFFFFFFFFFFFFFFFFFFFFFFFFFFF AND PUSH20 0xFFFFFFFFFFFFFFFFFFFFFFFFFFFFFFFFFFFFFFFF AND DUP2 MSTORE PUSH1 0x20 ADD SWAP1 DUP2 MSTORE PUSH1 0x20 ADD PUSH0 KECCAK256 PUSH0 DUP6 PUSH20 0xFFFFFFFFFFFFFFFFFFFFFFFFFFFFFFFFFFFFFFFF AND PUSH20 0xFFFFFFFFFFFFFFFFFFFFFFFFFFFFFFFFFFFFFFFF AND DUP2 MSTORE PUSH1 0x20 ADD SWAP1 DUP2 MSTORE PUSH1 0x20 ADD PUSH0 KECCAK256 DUP2 SWAP1 SSTORE POP DUP1 ISZERO PUSH2 0x14C0 JUMPI DUP3 PUSH20 0xFFFFFFFFFFFFFFFFFFFFFFFFFFFFFFFFFFFFFFFF AND DUP5 PUSH20 0xFFFFFFFFFFFFFFFFFFFFFFFFFFFFFFFFFFFFFFFF AND PUSH32 0x8C5BE1E5EBEC7D5BD14F71427D1E84F3DD0314C0F7B2291E5B200AC8C7C3B925 DUP5 PUSH1 0x40 MLOAD PUSH2 0x14B7 SWAP2 SWAP1 PUSH2 0x1D25 JUMP JUMPDEST PUSH1 0x40 MLOAD DUP1 SWAP2 SUB SWAP1 LOG3 JUMPDEST POP POP POP POP JUMP JUMPDEST PUSH0 PUSH20 0xFFFFFFFFFFFFFFFFFFFFFFFFFFFFFFFFFFFFFFFF AND DUP4 PUSH20 0xFFFFFFFFFFFFFFFFFFFFFFFFFFFFFFFFFFFFFFFF AND SUB PUSH2 0x1516 JUMPI DUP1 PUSH1 0x2 PUSH0 DUP3 DUP3 SLOAD PUSH2 0x150A SWAP2 SWAP1 PUSH2 0x253D JUMP JUMPDEST SWAP3 POP POP DUP2 SWAP1 SSTORE POP PUSH2 0x15E4 JUMP JUMPDEST PUSH0 DUP1 PUSH0 DUP6 PUSH20 0xFFFFFFFFFFFFFFFFFFFFFFFFFFFFFFFFFFFFFFFF AND PUSH20 0xFFFFFFFFFFFFFFFFFFFFFFFFFFFFFFFFFFFFFFFF AND DUP2 MSTORE PUSH1 0x20 ADD SWAP1 DUP2 MSTORE PUSH1 0x20 ADD PUSH0 KECCAK256 SLOAD SWAP1 POP DUP2 DUP2 LT ISZERO PUSH2 0x159F JUMPI DUP4 DUP2 DUP4 PUSH1 0x40 MLOAD PUSH32 0xE450D38C00000000000000000000000000000000000000000000000000000000 DUP2 MSTORE PUSH1 0x4 ADD PUSH2 0x1596 SWAP4 SWAP3 SWAP2 SWAP1 PUSH2 0x2508 JUMP JUMPDEST PUSH1 0x40 MLOAD DUP1 SWAP2 SUB SWAP1 REVERT JUMPDEST DUP2 DUP2 SUB PUSH0 DUP1 DUP7 PUSH20 0xFFFFFFFFFFFFFFFFFFFFFFFFFFFFFFFFFFFFFFFF AND PUSH20 0xFFFFFFFFFFFFFFFFFFFFFFFFFFFFFFFFFFFFFFFF AND DUP2 MSTORE PUSH1 0x20 ADD SWAP1 DUP2 MSTORE PUSH1 0x20 ADD PUSH0 KECCAK256 DUP2 SWAP1 SSTORE POP POP JUMPDEST PUSH0 PUSH20 0xFFFFFFFFFFFFFFFFFFFFFFFFFFFFFFFFFFFFFFFF AND DUP3 PUSH20 0xFFFFFFFFFFFFFFFFFFFFFFFFFFFFFFFFFFFFFFFF AND SUB PUSH2 0x162B JUMPI DUP1 PUSH1 0x2 PUSH0 DUP3 DUP3 SLOAD SUB SWAP3 POP POP DUP2 SWAP1 SSTORE POP PUSH2 0x1675 JUMP JUMPDEST DUP1 PUSH0 DUP1 DUP5 PUSH20 0xFFFFFFFFFFFFFFFFFFFFFFFFFFFFFFFFFFFFFFFF AND PUSH20 0xFFFFFFFFFFFFFFFFFFFFFFFFFFFFFFFFFFFFFFFF AND DUP2 MSTORE PUSH1 0x20 ADD SWAP1 DUP2 MSTORE PUSH1 0x20 ADD PUSH0 KECCAK256 PUSH0 DUP3 DUP3 SLOAD ADD SWAP3 POP POP DUP2 SWAP1 SSTORE POP JUMPDEST DUP2 PUSH20 0xFFFFFFFFFFFFFFFFFFFFFFFFFFFFFFFFFFFFFFFF AND DUP4 PUSH20 0xFFFFFFFFFFFFFFFFFFFFFFFFFFFFFFFFFFFFFFFF AND PUSH32 0xDDF252AD1BE2C89B69C2B068FC378DAA952BA7F163C4A11628F55A4DF523B3EF DUP4 PUSH1 0x40 MLOAD PUSH2 0x16D2 SWAP2 SWAP1 PUSH2 0x1D25 JUMP JUMPDEST PUSH1 0x40 MLOAD DUP1 SWAP2 SUB SWAP1 LOG3 POP POP POP JUMP JUMPDEST PUSH0 PUSH32 0x8B73C3C69BB8FE3D512ECC4CF759CC79239F7B179B0FFACAA9A75D522B39400F PUSH32 0x0 PUSH32 0x0 CHAINID ADDRESS PUSH1 0x40 MLOAD PUSH1 0x20 ADD PUSH2 0x1759 SWAP6 SWAP5 SWAP4 SWAP3 SWAP2 SWAP1 PUSH2 0x2570 JUMP JUMPDEST PUSH1 0x40 MLOAD PUSH1 0x20 DUP2 DUP4 SUB SUB DUP2 MSTORE SWAP1 PUSH1 0x40 MSTORE DUP1 MLOAD SWAP1 PUSH1 0x20 ADD KECCAK256 SWAP1 POP SWAP1 JUMP JUMPDEST PUSH1 0x60 PUSH1 0xFF PUSH0 SHL DUP4 EQ PUSH2 0x1790 JUMPI PUSH2 0x1789 DUP4 PUSH2 0x1AAA JUMP JUMPDEST SWAP1 POP PUSH2 0x181B JUMP JUMPDEST DUP2 DUP1 SLOAD PUSH2 0x179C SWAP1 PUSH2 0x2140 JUMP JUMPDEST DUP1 PUSH1 0x1F ADD PUSH1 0x20 DUP1 SWAP2 DIV MUL PUSH1 0x20 ADD PUSH1 0x40 MLOAD SWAP1 DUP2 ADD PUSH1 0x40 MSTORE DUP1 SWAP3 SWAP2 SWAP1 DUP2 DUP2 MSTORE PUSH1 0x20 ADD DUP3 DUP1 SLOAD PUSH2 0x17C8 SWAP1 PUSH2 0x2140 JUMP JUMPDEST DUP1 ISZERO PUSH2 0x1813 JUMPI DUP1 PUSH1 0x1F LT PUSH2 0x17EA JUMPI PUSH2 0x100 DUP1 DUP4 SLOAD DIV MUL DUP4 MSTORE SWAP2 PUSH1 0x20 ADD SWAP2 PUSH2 0x1813 JUMP JUMPDEST DUP3 ADD SWAP2 SWAP1 PUSH0 MSTORE PUSH1 0x20 PUSH0 KECCAK256 SWAP1 JUMPDEST DUP2 SLOAD DUP2 MSTORE SWAP1 PUSH1 0x1 ADD SWAP1 PUSH1 0x20 ADD DUP1 DUP4 GT PUSH2 0x17F6 JUMPI DUP3 SWAP1 SUB PUSH1 0x1F AND DUP3 ADD SWAP2 JUMPDEST POP POP POP POP POP SWAP1 POP JUMPDEST SWAP3 SWAP2 POP POP JUMP JUMPDEST PUSH0 PUSH1 0x40 MLOAD PUSH32 0x1901000000000000000000000000000000000000000000000000000000000000 DUP2 MSTORE DUP4 PUSH1 0x2 DUP3 ADD MSTORE DUP3 PUSH1 0x22 DUP3 ADD MSTORE PUSH1 0x42 DUP2 KECCAK256 SWAP2 POP POP SWAP3 SWAP2 POP POP JUMP JUMPDEST PUSH0 DUP1 PUSH0 PUSH32 0x7FFFFFFFFFFFFFFFFFFFFFFFFFFFFFFF5D576E7357A4501DDFE92F46681B20A0 DUP5 PUSH0 SHR GT ISZERO PUSH2 0x189D JUMPI PUSH0 PUSH1 0x3 DUP6 SWAP3 POP SWAP3 POP SWAP3 POP PUSH2 0x193E JUMP JUMPDEST PUSH0 PUSH1 0x1 DUP9 DUP9 DUP9 DUP9 PUSH1 0x40 MLOAD PUSH0 DUP2 MSTORE PUSH1 0x20 ADD PUSH1 0x40 MSTORE PUSH1 0x40 MLOAD PUSH2 0x18C0 SWAP5 SWAP4 SWAP3 SWAP2 SWAP1 PUSH2 0x25C1 JUMP JUMPDEST PUSH1 0x20 PUSH1 0x40 MLOAD PUSH1 0x20 DUP2 SUB SWAP1 DUP1 DUP5 SUB SWAP1 DUP6 GAS STATICCALL ISZERO DUP1 ISZERO PUSH2 0x18E0 JUMPI RETURNDATASIZE PUSH0 DUP1 RETURNDATACOPY RETURNDATASIZE PUSH0 REVERT JUMPDEST POP POP POP PUSH1 0x20 PUSH1 0x40 MLOAD SUB MLOAD SWAP1 POP PUSH0 PUSH20 0xFFFFFFFFFFFFFFFFFFFFFFFFFFFFFFFFFFFFFFFF AND DUP2 PUSH20 0xFFFFFFFFFFFFFFFFFFFFFFFFFFFFFFFFFFFFFFFF AND SUB PUSH2 0x1931 JUMPI PUSH0 PUSH1 0x1 PUSH0 DUP1 SHL SWAP4 POP SWAP4 POP SWAP4 POP POP PUSH2 0x193E JUMP JUMPDEST DUP1 PUSH0 DUP1 PUSH0 SHL SWAP4 POP SWAP4 POP SWAP4 POP POP JUMPDEST SWAP5 POP SWAP5 POP SWAP5 SWAP2 POP POP JUMP JUMPDEST PUSH0 PUSH1 0x3 DUP2 GT ISZERO PUSH2 0x195B JUMPI PUSH2 0x195A PUSH2 0x2604 JUMP JUMPDEST JUMPDEST DUP3 PUSH1 0x3 DUP2 GT ISZERO PUSH2 0x196E JUMPI PUSH2 0x196D PUSH2 0x2604 JUMP JUMPDEST JUMPDEST SUB ISZERO PUSH2 0x1AA6 JUMPI PUSH1 0x1 PUSH1 0x3 DUP2 GT ISZERO PUSH2 0x1988 JUMPI PUSH2 0x1987 PUSH2 0x2604 JUMP JUMPDEST JUMPDEST DUP3 PUSH1 0x3 DUP2 GT ISZERO PUSH2 0x199B JUMPI PUSH2 0x199A PUSH2 0x2604 JUMP JUMPDEST JUMPDEST SUB PUSH2 0x19D2 JUMPI PUSH1 0x40 MLOAD PUSH32 0xF645EEDF00000000000000000000000000000000000000000000000000000000 DUP2 MSTORE PUSH1 0x4 ADD PUSH1 0x40 MLOAD DUP1 SWAP2 SUB SWAP1 REVERT JUMPDEST PUSH1 0x2 PUSH1 0x3 DUP2 GT ISZERO PUSH2 0x19E6 JUMPI PUSH2 0x19E5 PUSH2 0x2604 JUMP JUMPDEST JUMPDEST DUP3 PUSH1 0x3 DUP2 GT ISZERO PUSH2 0x19F9 JUMPI PUSH2 0x19F8 PUSH2 0x2604 JUMP JUMPDEST JUMPDEST SUB PUSH2 0x1A3D JUMPI DUP1 PUSH0 SHR PUSH1 0x40 MLOAD PUSH32 0xFCE698F700000000000000000000000000000000000000000000000000000000 DUP2 MSTORE PUSH1 0x4 ADD PUSH2 0x1A34 SWAP2 SWAP1 PUSH2 0x1D25 JUMP JUMPDEST PUSH1 0x40 MLOAD DUP1 SWAP2 SUB SWAP1 REVERT JUMPDEST PUSH1 0x3 DUP1 DUP2 GT ISZERO PUSH2 0x1A50 JUMPI PUSH2 0x1A4F PUSH2 0x2604 JUMP JUMPDEST JUMPDEST DUP3 PUSH1 0x3 DUP2 GT ISZERO PUSH2 0x1A63 JUMPI PUSH2 0x1A62 PUSH2 0x2604 JUMP JUMPDEST JUMPDEST SUB PUSH2 0x1AA5 JUMPI DUP1 PUSH1 0x40 MLOAD PUSH32 0xD78BCE0C00000000000000000000000000000000000000000000000000000000 DUP2 MSTORE PUSH1 0x4 ADD PUSH2 0x1A9C SWAP2 SWAP1 PUSH2 0x1E05 JUMP JUMPDEST PUSH1 0x40 MLOAD DUP1 SWAP2 SUB SWAP1 REVERT JUMPDEST JUMPDEST POP POP JUMP JUMPDEST PUSH1 0x60 PUSH0 PUSH2 0x1AB6 DUP4 PUSH2 0x1B1C JUMP JUMPDEST SWAP1 POP PUSH0 PUSH1 0x20 PUSH8 0xFFFFFFFFFFFFFFFF DUP2 GT ISZERO PUSH2 0x1AD4 JUMPI PUSH2 0x1AD3 PUSH2 0x23ED JUMP JUMPDEST JUMPDEST PUSH1 0x40 MLOAD SWAP1 DUP1 DUP3 MSTORE DUP1 PUSH1 0x1F ADD PUSH1 0x1F NOT AND PUSH1 0x20 ADD DUP3 ADD PUSH1 0x40 MSTORE DUP1 ISZERO PUSH2 0x1B06 JUMPI DUP2 PUSH1 0x20 ADD PUSH1 0x1 DUP3 MUL DUP1 CALLDATASIZE DUP4 CALLDATACOPY DUP1 DUP3 ADD SWAP2 POP POP SWAP1 POP JUMPDEST POP SWAP1 POP DUP2 DUP2 MSTORE DUP4 PUSH1 0x20 DUP3 ADD MSTORE DUP1 SWAP3 POP POP POP SWAP2 SWAP1 POP JUMP JUMPDEST PUSH0 DUP1 PUSH1 0xFF DUP4 PUSH0 SHR AND SWAP1 POP PUSH1 0x1F DUP2 GT ISZERO PUSH2 0x1B61 JUMPI PUSH1 0x40 MLOAD PUSH32 0xB3512B0C00000000000000000000000000000000000000000000000000000000 DUP2 MSTORE PUSH1 0x4 ADD PUSH1 0x40 MLOAD DUP1 SWAP2 SUB SWAP1 REVERT JUMPDEST DUP1 SWAP2 POP POP SWAP2 SWAP1 POP JUMP JUMPDEST PUSH0 DUP2 MLOAD SWAP1 POP SWAP2 SWAP1 POP JUMP JUMPDEST PUSH0 DUP3 DUP3 MSTORE PUSH1 0x20 DUP3 ADD SWAP1 POP SWAP3 SWAP2 POP POP JUMP JUMPDEST PUSH0 JUMPDEST DUP4 DUP2 LT ISZERO PUSH2 0x1BA1 JUMPI DUP1 DUP3 ADD MLOAD DUP2 DUP5 ADD MSTORE PUSH1 0x20 DUP2 ADD SWAP1 POP PUSH2 0x1B86 JUMP JUMPDEST PUSH0 DUP5 DUP5 ADD MSTORE POP POP POP POP JUMP JUMPDEST PUSH0 PUSH1 0x1F NOT PUSH1 0x1F DUP4 ADD AND SWAP1 POP SWAP2 SWAP1 POP JUMP JUMPDEST PUSH0 PUSH2 0x1BC6 DUP3 PUSH2 0x1B6A JUMP JUMPDEST PUSH2 0x1BD0 DUP2 DUP6 PUSH2 0x1B74 JUMP JUMPDEST SWAP4 POP PUSH2 0x1BE0 DUP2 DUP6 PUSH1 0x20 DUP7 ADD PUSH2 0x1B84 JUMP JUMPDEST PUSH2 0x1BE9 DUP2 PUSH2 0x1BAC JUMP JUMPDEST DUP5 ADD SWAP2 POP POP SWAP3 SWAP2 POP POP JUMP JUMPDEST PUSH0 PUSH1 0x20 DUP3 ADD SWAP1 POP DUP2 DUP2 SUB PUSH0 DUP4 ADD MSTORE PUSH2 0x1C0C DUP2 DUP5 PUSH2 0x1BBC JUMP JUMPDEST SWAP1 POP SWAP3 SWAP2 POP POP JUMP JUMPDEST PUSH0 DUP1 REVERT JUMPDEST PUSH0 PUSH20 0xFFFFFFFFFFFFFFFFFFFFFFFFFFFFFFFFFFFFFFFF DUP3 AND SWAP1 POP SWAP2 SWAP1 POP JUMP JUMPDEST PUSH0 PUSH2 0x1C41 DUP3 PUSH2 0x1C18 JUMP JUMPDEST SWAP1 POP SWAP2 SWAP1 POP JUMP JUMPDEST PUSH2 0x1C51 DUP2 PUSH2 0x1C37 JUMP JUMPDEST DUP2 EQ PUSH2 0x1C5B JUMPI PUSH0 DUP1 REVERT JUMPDEST POP JUMP JUMPDEST PUSH0 DUP2 CALLDATALOAD SWAP1 POP PUSH2 0x1C6C DUP2 PUSH2 0x1C48 JUMP JUMPDEST SWAP3 SWAP2 POP POP JUMP JUMPDEST PUSH0 DUP2 SWAP1 POP SWAP2 SWAP1 POP JUMP JUMPDEST PUSH2 0x1C84 DUP2 PUSH2 0x1C72 JUMP JUMPDEST DUP2 EQ PUSH2 0x1C8E JUMPI PUSH0 DUP1 REVERT JUMPDEST POP JUMP JUMPDEST PUSH0 DUP2 CALLDATALOAD SWAP1 POP PUSH2 0x1C9F DUP2 PUSH2 0x1C7B JUMP JUMPDEST SWAP3 SWAP2 POP POP JUMP JUMPDEST PUSH0 DUP1 PUSH1 0x40 DUP4 DUP6 SUB SLT ISZERO PUSH2 0x1CBB JUMPI PUSH2 0x1CBA PUSH2 0x1C14 JUMP JUMPDEST JUMPDEST PUSH0 PUSH2 0x1CC8 DUP6 DUP3 DUP7 ADD PUSH2 0x1C5E JUMP JUMPDEST SWAP3 POP POP PUSH1 0x20 PUSH2 0x1CD9 DUP6 DUP3 DUP7 ADD PUSH2 0x1C91 JUMP JUMPDEST SWAP2 POP POP SWAP3 POP SWAP3 SWAP1 POP JUMP JUMPDEST PUSH0 DUP2 ISZERO ISZERO SWAP1 POP SWAP2 SWAP1 POP JUMP JUMPDEST PUSH2 0x1CF7 DUP2 PUSH2 0x1CE3 JUMP JUMPDEST DUP3 MSTORE POP POP JUMP JUMPDEST PUSH0 PUSH1 0x20 DUP3 ADD SWAP1 POP PUSH2 0x1D10 PUSH0 DUP4 ADD DUP5 PUSH2 0x1CEE JUMP JUMPDEST SWAP3 SWAP2 POP POP JUMP JUMPDEST PUSH2 0x1D1F DUP2 PUSH2 0x1C72 JUMP JUMPDEST DUP3 MSTORE POP POP JUMP JUMPDEST PUSH0 PUSH1 0x20 DUP3 ADD SWAP1 POP PUSH2 0x1D38 PUSH0 DUP4 ADD DUP5 PUSH2 0x1D16 JUMP JUMPDEST SWAP3 SWAP2 POP POP JUMP JUMPDEST PUSH0 DUP1 PUSH0 PUSH1 0x60 DUP5 DUP7 SUB SLT ISZERO PUSH2 0x1D55 JUMPI PUSH2 0x1D54 PUSH2 0x1C14 JUMP JUMPDEST JUMPDEST PUSH0 PUSH2 0x1D62 DUP7 DUP3 DUP8 ADD PUSH2 0x1C5E JUMP JUMPDEST SWAP4 POP POP PUSH1 0x20 PUSH2 0x1D73 DUP7 DUP3 DUP8 ADD PUSH2 0x1C5E JUMP JUMPDEST SWAP3 POP POP PUSH1 0x40 PUSH2 0x1D84 DUP7 DUP3 DUP8 ADD PUSH2 0x1C91 JUMP JUMPDEST SWAP2 POP POP SWAP3 POP SWAP3 POP SWAP3 JUMP JUMPDEST PUSH0 PUSH1 0x20 DUP3 DUP5 SUB SLT ISZERO PUSH2 0x1DA3 JUMPI PUSH2 0x1DA2 PUSH2 0x1C14 JUMP JUMPDEST JUMPDEST PUSH0 PUSH2 0x1DB0 DUP5 DUP3 DUP6 ADD PUSH2 0x1C5E JUMP JUMPDEST SWAP2 POP POP SWAP3 SWAP2 POP POP JUMP JUMPDEST PUSH0 PUSH1 0xFF DUP3 AND SWAP1 POP SWAP2 SWAP1 POP JUMP JUMPDEST PUSH2 0x1DCE DUP2 PUSH2 0x1DB9 JUMP JUMPDEST DUP3 MSTORE POP POP JUMP JUMPDEST PUSH0 PUSH1 0x20 DUP3 ADD SWAP1 POP PUSH2 0x1DE7 PUSH0 DUP4 ADD DUP5 PUSH2 0x1DC5 JUMP JUMPDEST SWAP3 SWAP2 POP POP JUMP JUMPDEST PUSH0 DUP2 SWAP1 POP SWAP2 SWAP1 POP JUMP JUMPDEST PUSH2 0x1DFF DUP2 PUSH2 0x1DED JUMP JUMPDEST DUP3 MSTORE POP POP JUMP JUMPDEST PUSH0 PUSH1 0x20 DUP3 ADD SWAP1 POP PUSH2 0x1E18 PUSH0 DUP4 ADD DUP5 PUSH2 0x1DF6 JUMP JUMPDEST SWAP3 SWAP2 POP POP JUMP JUMPDEST PUSH0 PUSH32 0xFF00000000000000000000000000000000000000000000000000000000000000 DUP3 AND SWAP1 POP SWAP2 SWAP1 POP JUMP JUMPDEST PUSH2 0x1E52 DUP2 PUSH2 0x1E1E JUMP JUMPDEST DUP3 MSTORE POP POP JUMP JUMPDEST PUSH2 0x1E61 DUP2 PUSH2 0x1C37 JUMP JUMPDEST DUP3 MSTORE POP POP JUMP JUMPDEST PUSH0 DUP2 MLOAD SWAP1 POP SWAP2 SWAP1 POP JUMP JUMPDEST PUSH0 DUP3 DUP3 MSTORE PUSH1 0x20 DUP3 ADD SWAP1 POP SWAP3 SWAP2 POP POP JUMP JUMPDEST PUSH0 DUP2 SWAP1 POP PUSH1 0x20 DUP3 ADD SWAP1 POP SWAP2 SWAP1 POP JUMP JUMPDEST PUSH2 0x1E99 DUP2 PUSH2 0x1C72 JUMP JUMPDEST DUP3 MSTORE POP POP JUMP JUMPDEST PUSH0 PUSH2 0x1EAA DUP4 DUP4 PUSH2 0x1E90 JUMP JUMPDEST PUSH1 0x20 DUP4 ADD SWAP1 POP SWAP3 SWAP2 POP POP JUMP JUMPDEST PUSH0 PUSH1 0x20 DUP3 ADD SWAP1 POP SWAP2 SWAP1 POP JUMP JUMPDEST PUSH0 PUSH2 0x1ECC DUP3 PUSH2 0x1E67 JUMP JUMPDEST PUSH2 0x1ED6 DUP2 DUP6 PUSH2 0x1E71 JUMP JUMPDEST SWAP4 POP PUSH2 0x1EE1 DUP4 PUSH2 0x1E81 JUMP JUMPDEST DUP1 PUSH0 JUMPDEST DUP4 DUP2 LT ISZERO PUSH2 0x1F11 JUMPI DUP2 MLOAD PUSH2 0x1EF8 DUP9 DUP3 PUSH2 0x1E9F JUMP JUMPDEST SWAP8 POP PUSH2 0x1F03 DUP4 PUSH2 0x1EB6 JUMP JUMPDEST SWAP3 POP POP PUSH1 0x1 DUP2 ADD SWAP1 POP PUSH2 0x1EE4 JUMP JUMPDEST POP DUP6 SWAP4 POP POP POP POP SWAP3 SWAP2 POP POP JUMP JUMPDEST PUSH0 PUSH1 0xE0 DUP3 ADD SWAP1 POP PUSH2 0x1F31 PUSH0 DUP4 ADD DUP11 PUSH2 0x1E49 JUMP JUMPDEST DUP2 DUP2 SUB PUSH1 0x20 DUP4 ADD MSTORE PUSH2 0x1F43 DUP2 DUP10 PUSH2 0x1BBC JUMP JUMPDEST SWAP1 POP DUP2 DUP2 SUB PUSH1 0x40 DUP4 ADD MSTORE PUSH2 0x1F57 DUP2 DUP9 PUSH2 0x1BBC JUMP JUMPDEST SWAP1 POP PUSH2 0x1F66 PUSH1 0x60 DUP4 ADD DUP8 PUSH2 0x1D16 JUMP JUMPDEST PUSH2 0x1F73 PUSH1 0x80 DUP4 ADD DUP7 PUSH2 0x1E58 JUMP JUMPDEST PUSH2 0x1F80 PUSH1 0xA0 DUP4 ADD DUP6 PUSH2 0x1DF6 JUMP JUMPDEST DUP2 DUP2 SUB PUSH1 0xC0 DUP4 ADD MSTORE PUSH2 0x1F92 DUP2 DUP5 PUSH2 0x1EC2 JUMP JUMPDEST SWAP1 POP SWAP9 SWAP8 POP POP POP POP POP POP POP POP JUMP JUMPDEST PUSH0 PUSH1 0x20 DUP3 ADD SWAP1 POP PUSH2 0x1FB3 PUSH0 DUP4 ADD DUP5 PUSH2 0x1E58 JUMP JUMPDEST SWAP3 SWAP2 POP POP JUMP JUMPDEST PUSH0 PUSH1 0x20 DUP3 DUP5 SUB SLT ISZERO PUSH2 0x1FCE JUMPI PUSH2 0x1FCD PUSH2 0x1C14 JUMP JUMPDEST JUMPDEST PUSH0 PUSH2 0x1FDB DUP5 DUP3 DUP6 ADD PUSH2 0x1C91 JUMP JUMPDEST SWAP2 POP POP SWAP3 SWAP2 POP POP JUMP JUMPDEST PUSH2 0x1FED DUP2 PUSH2 0x1DB9 JUMP JUMPDEST DUP2 EQ PUSH2 0x1FF7 JUMPI PUSH0 DUP1 REVERT JUMPDEST POP JUMP JUMPDEST PUSH0 DUP2 CALLDATALOAD SWAP1 POP PUSH2 0x2008 DUP2 PUSH2 0x1FE4 JUMP JUMPDEST SWAP3 SWAP2 POP POP JUMP JUMPDEST PUSH2 0x2017 DUP2 PUSH2 0x1DED JUMP JUMPDEST DUP2 EQ PUSH2 0x2021 JUMPI PUSH0 DUP1 REVERT JUMPDEST POP JUMP JUMPDEST PUSH0 DUP2 CALLDATALOAD SWAP1 POP PUSH2 0x2032 DUP2 PUSH2 0x200E JUMP JUMPDEST SWAP3 SWAP2 POP POP JUMP JUMPDEST PUSH0 DUP1 PUSH0 DUP1 PUSH0 DUP1 PUSH0 PUSH1 0xE0 DUP9 DUP11 SUB SLT ISZERO PUSH2 0x2053 JUMPI PUSH2 0x2052 PUSH2 0x1C14 JUMP JUMPDEST JUMPDEST PUSH0 PUSH2 0x2060 DUP11 DUP3 DUP12 ADD PUSH2 0x1C5E JUMP JUMPDEST SWAP8 POP POP PUSH1 0x20 PUSH2 0x2071 DUP11 DUP3 DUP12 ADD PUSH2 0x1C5E JUMP JUMPDEST SWAP7 POP POP PUSH1 0x40 PUSH2 0x2082 DUP11 DUP3 DUP12 ADD PUSH2 0x1C91 JUMP JUMPDEST SWAP6 POP POP PUSH1 0x60 PUSH2 0x2093 DUP11 DUP3 DUP12 ADD PUSH2 0x1C91 JUMP JUMPDEST SWAP5 POP POP PUSH1 0x80 PUSH2 0x20A4 DUP11 DUP3 DUP12 ADD PUSH2 0x1FFA JUMP JUMPDEST SWAP4 POP POP PUSH1 0xA0 PUSH2 0x20B5 DUP11 DUP3 DUP12 ADD PUSH2 0x2024 JUMP JUMPDEST SWAP3 POP POP PUSH1 0xC0 PUSH2 0x20C6 DUP11 DUP3 DUP12 ADD PUSH2 0x2024 JUMP JUMPDEST SWAP2 POP POP SWAP3 SWAP6 SWAP9 SWAP2 SWAP5 SWAP8 POP SWAP3 SWAP6 POP JUMP JUMPDEST PUSH0 DUP1 PUSH1 0x40 DUP4 DUP6 SUB SLT ISZERO PUSH2 0x20EB JUMPI PUSH2 0x20EA PUSH2 0x1C14 JUMP JUMPDEST JUMPDEST PUSH0 PUSH2 0x20F8 DUP6 DUP3 DUP7 ADD PUSH2 0x1C5E JUMP JUMPDEST SWAP3 POP POP PUSH1 0x20 PUSH2 0x2109 DUP6 DUP3 DUP7 ADD PUSH2 0x1C5E JUMP JUMPDEST SWAP2 POP POP SWAP3 POP SWAP3 SWAP1 POP JUMP JUMPDEST PUSH32 0x4E487B7100000000000000000000000000000000000000000000000000000000 PUSH0 MSTORE PUSH1 0x22 PUSH1 0x4 MSTORE PUSH1 0x24 PUSH0 REVERT JUMPDEST PUSH0 PUSH1 0x2 DUP3 DIV SWAP1 POP PUSH1 0x1 DUP3 AND DUP1 PUSH2 0x2157 JUMPI PUSH1 0x7F DUP3 AND SWAP2 POP JUMPDEST PUSH1 0x20 DUP3 LT DUP2 SUB PUSH2 0x216A JUMPI PUSH2 0x2169 PUSH2 0x2113 JUMP JUMPDEST JUMPDEST POP SWAP2 SWAP1 POP JUMP JUMPDEST PUSH32 0x4E487B7100000000000000000000000000000000000000000000000000000000 PUSH0 MSTORE PUSH1 0x11 PUSH1 0x4 MSTORE PUSH1 0x24 PUSH0 REVERT JUMPDEST PUSH0 PUSH2 0x21A7 DUP3 PUSH2 0x1C72 JUMP JUMPDEST SWAP2 POP PUSH2 0x21B2 DUP4 PUSH2 0x1C72 JUMP JUMPDEST SWAP3 POP DUP3 DUP3 MUL PUSH2 0x21C0 DUP2 PUSH2 0x1C72 JUMP JUMPDEST SWAP2 POP DUP3 DUP3 DIV DUP5 EQ DUP4 ISZERO OR PUSH2 0x21D7 JUMPI PUSH2 0x21D6 PUSH2 0x2170 JUMP JUMPDEST JUMPDEST POP SWAP3 SWAP2 POP POP JUMP JUMPDEST PUSH32 0x4E487B7100000000000000000000000000000000000000000000000000000000 PUSH0 MSTORE PUSH1 0x12 PUSH1 0x4 MSTORE PUSH1 0x24 PUSH0 REVERT JUMPDEST PUSH0 PUSH2 0x2215 DUP3 PUSH2 0x1C72 JUMP JUMPDEST SWAP2 POP PUSH2 0x2220 DUP4 PUSH2 0x1C72 JUMP JUMPDEST SWAP3 POP DUP3 PUSH2 0x2230 JUMPI PUSH2 0x222F PUSH2 0x21DE JUMP JUMPDEST JUMPDEST DUP3 DUP3 DIV SWAP1 POP SWAP3 SWAP2 POP POP JUMP JUMPDEST PUSH32 0x63757272656E746C79206465707420746F20636F727265746572616C20726174 PUSH0 DUP3 ADD MSTORE PUSH32 0x696F206C657373207468616E2038352500000000000000000000000000000000 PUSH1 0x20 DUP3 ADD MSTORE POP JUMP JUMPDEST PUSH0 PUSH2 0x2295 PUSH1 0x30 DUP4 PUSH2 0x1B74 JUMP JUMPDEST SWAP2 POP PUSH2 0x22A0 DUP3 PUSH2 0x223B JUMP JUMPDEST PUSH1 0x40 DUP3 ADD SWAP1 POP SWAP2 SWAP1 POP JUMP JUMPDEST PUSH0 PUSH1 0x20 DUP3 ADD SWAP1 POP DUP2 DUP2 SUB PUSH0 DUP4 ADD MSTORE PUSH2 0x22C2 DUP2 PUSH2 0x2289 JUMP JUMPDEST SWAP1 POP SWAP2 SWAP1 POP JUMP JUMPDEST PUSH0 PUSH1 0x40 DUP3 ADD SWAP1 POP PUSH2 0x22DC PUSH0 DUP4 ADD DUP6 PUSH2 0x1D16 JUMP JUMPDEST PUSH2 0x22E9 PUSH1 0x20 DUP4 ADD DUP5 PUSH2 0x1CEE JUMP JUMPDEST SWAP4 SWAP3 POP POP POP JUMP JUMPDEST PUSH0 PUSH10 0xFFFFFFFFFFFFFFFFFFFF DUP3 AND SWAP1 POP SWAP2 SWAP1 POP JUMP JUMPDEST PUSH2 0x230E DUP2 PUSH2 0x22F0 JUMP JUMPDEST DUP2 EQ PUSH2 0x2318 JUMPI PUSH0 DUP1 REVERT JUMPDEST POP JUMP JUMPDEST PUSH0 DUP2 MLOAD SWAP1 POP PUSH2 0x2329 DUP2 PUSH2 0x2305 JUMP JUMPDEST SWAP3 SWAP2 POP POP JUMP JUMPDEST PUSH0 DUP2 SWAP1 POP SWAP2 SWAP1 POP JUMP JUMPDEST PUSH2 0x2341 DUP2 PUSH2 0x232F JUMP JUMPDEST DUP2 EQ PUSH2 0x234B JUMPI PUSH0 DUP1 REVERT JUMPDEST POP JUMP JUMPDEST PUSH0 DUP2 MLOAD SWAP1 POP PUSH2 0x235C DUP2 PUSH2 0x2338 JUMP JUMPDEST SWAP3 SWAP2 POP POP JUMP JUMPDEST PUSH0 DUP2 MLOAD SWAP1 POP PUSH2 0x2370 DUP2 PUSH2 0x1C7B JUMP JUMPDEST SWAP3 SWAP2 POP POP JUMP JUMPDEST PUSH0 DUP1 PUSH0 DUP1 PUSH0 PUSH1 0xA0 DUP7 DUP9 SUB SLT ISZERO PUSH2 0x238F JUMPI PUSH2 0x238E PUSH2 0x1C14 JUMP JUMPDEST JUMPDEST PUSH0 PUSH2 0x239C DUP9 DUP3 DUP10 ADD PUSH2 0x231B JUMP JUMPDEST SWAP6 POP POP PUSH1 0x20 PUSH2 0x23AD DUP9 DUP3 DUP10 ADD PUSH2 0x234E JUMP JUMPDEST SWAP5 POP POP PUSH1 0x40 PUSH2 0x23BE DUP9 DUP3 DUP10 ADD PUSH2 0x2362 JUMP JUMPDEST SWAP4 POP POP PUSH1 0x60 PUSH2 0x23CF DUP9 DUP3 DUP10 ADD PUSH2 0x2362 JUMP JUMPDEST SWAP3 POP POP PUSH1 0x80 PUSH2 0x23E0 DUP9 DUP3 DUP10 ADD PUSH2 0x231B JUMP JUMPDEST SWAP2 POP POP SWAP3 SWAP6 POP SWAP3 SWAP6 SWAP1 SWAP4 POP JUMP JUMPDEST PUSH32 0x4E487B7100000000000000000000000000000000000000000000000000000000 PUSH0 MSTORE PUSH1 0x41 PUSH1 0x4 MSTORE PUSH1 0x24 PUSH0 REVERT JUMPDEST PUSH32 0x526174696F206D757374206C657373207468616E20657175616C203735250000 PUSH0 DUP3 ADD MSTORE POP JUMP JUMPDEST PUSH0 PUSH2 0x244E PUSH1 0x1E DUP4 PUSH2 0x1B74 JUMP JUMPDEST SWAP2 POP PUSH2 0x2459 DUP3 PUSH2 0x241A JUMP JUMPDEST PUSH1 0x20 DUP3 ADD SWAP1 POP SWAP2 SWAP1 POP JUMP JUMPDEST PUSH0 PUSH1 0x20 DUP3 ADD SWAP1 POP DUP2 DUP2 SUB PUSH0 DUP4 ADD MSTORE PUSH2 0x247B DUP2 PUSH2 0x2442 JUMP JUMPDEST SWAP1 POP SWAP2 SWAP1 POP JUMP JUMPDEST PUSH0 PUSH1 0xC0 DUP3 ADD SWAP1 POP PUSH2 0x2495 PUSH0 DUP4 ADD DUP10 PUSH2 0x1DF6 JUMP JUMPDEST PUSH2 0x24A2 PUSH1 0x20 DUP4 ADD DUP9 PUSH2 0x1E58 JUMP JUMPDEST PUSH2 0x24AF PUSH1 0x40 DUP4 ADD DUP8 PUSH2 0x1E58 JUMP JUMPDEST PUSH2 0x24BC PUSH1 0x60 DUP4 ADD DUP7 PUSH2 0x1D16 JUMP JUMPDEST PUSH2 0x24C9 PUSH1 0x80 DUP4 ADD DUP6 PUSH2 0x1D16 JUMP JUMPDEST PUSH2 0x24D6 PUSH1 0xA0 DUP4 ADD DUP5 PUSH2 0x1D16 JUMP JUMPDEST SWAP8 SWAP7 POP POP POP POP POP POP POP JUMP JUMPDEST PUSH0 PUSH1 0x40 DUP3 ADD SWAP1 POP PUSH2 0x24F4 PUSH0 DUP4 ADD DUP6 PUSH2 0x1E58 JUMP JUMPDEST PUSH2 0x2501 PUSH1 0x20 DUP4 ADD DUP5 PUSH2 0x1E58 JUMP JUMPDEST SWAP4 SWAP3 POP POP POP JUMP JUMPDEST PUSH0 PUSH1 0x60 DUP3 ADD SWAP1 POP PUSH2 0x251B PUSH0 DUP4 ADD DUP7 PUSH2 0x1E58 JUMP JUMPDEST PUSH2 0x2528 PUSH1 0x20 DUP4 ADD DUP6 PUSH2 0x1D16 JUMP JUMPDEST PUSH2 0x2535 PUSH1 0x40 DUP4 ADD DUP5 PUSH2 0x1D16 JUMP JUMPDEST SWAP5 SWAP4 POP POP POP POP JUMP JUMPDEST PUSH0 PUSH2 0x2547 DUP3 PUSH2 0x1C72 JUMP JUMPDEST SWAP2 POP PUSH2 0x2552 DUP4 PUSH2 0x1C72 JUMP JUMPDEST SWAP3 POP DUP3 DUP3 ADD SWAP1 POP DUP1 DUP3 GT ISZERO PUSH2 0x256A JUMPI PUSH2 0x2569 PUSH2 0x2170 JUMP JUMPDEST JUMPDEST SWAP3 SWAP2 POP POP JUMP JUMPDEST PUSH0 PUSH1 0xA0 DUP3 ADD SWAP1 POP PUSH2 0x2583 PUSH0 DUP4 ADD DUP9 PUSH2 0x1DF6 JUMP JUMPDEST PUSH2 0x2590 PUSH1 0x20 DUP4 ADD DUP8 PUSH2 0x1DF6 JUMP JUMPDEST PUSH2 0x259D PUSH1 0x40 DUP4 ADD DUP7 PUSH2 0x1DF6 JUMP JUMPDEST PUSH2 0x25AA PUSH1 0x60 DUP4 ADD DUP6 PUSH2 0x1D16 JUMP JUMPDEST PUSH2 0x25B7 PUSH1 0x80 DUP4 ADD DUP5 PUSH2 0x1E58 JUMP JUMPDEST SWAP7 SWAP6 POP POP POP POP POP POP JUMP JUMPDEST PUSH0 PUSH1 0x80 DUP3 ADD SWAP1 POP PUSH2 0x25D4 PUSH0 DUP4 ADD DUP8 PUSH2 0x1DF6 JUMP JUMPDEST PUSH2 0x25E1 PUSH1 0x20 DUP4 ADD DUP7 PUSH2 0x1DC5 JUMP JUMPDEST PUSH2 0x25EE PUSH1 0x40 DUP4 ADD DUP6 PUSH2 0x1DF6 JUMP JUMPDEST PUSH2 0x25FB PUSH1 0x60 DUP4 ADD DUP5 PUSH2 0x1DF6 JUMP JUMPDEST SWAP6 SWAP5 POP POP POP POP POP JUMP JUMPDEST PUSH32 0x4E487B7100000000000000000000000000000000000000000000000000000000 PUSH0 MSTORE PUSH1 0x21 PUSH1 0x4 MSTORE PUSH1 0x24 PUSH0 REVERT INVALID LOG2 PUSH5 0x6970667358 0x22 SLT KECCAK256 0x28 PUSH4 0xA85AC47B 0x5D SWAP11 0xE1 0xB1 0xBD SELFBALANCE CALLDATACOPY PUSH14 0xB3B288F0AB83184C876F759788F5 PUSH31 0xB9746764736F6C634300081600330000000000000000000000000000000000 "
		},
		"gasEstimates": {
			"creation": {
				"codeDepositCost": "1966200",
				"executionCost": "infinite",
				"totalCost": "infinite"
			},
			"external": {
				"DOMAIN_SEPARATOR()": "infinite",
				"allowance(address,address)": "infinite",
				"approve(address,uint256)": "infinite",
				"balanceOf(address)": "2940",
				"borrow(uint256)": "infinite",
				"decimals()": "383",
				"eip712Domain()": "infinite",
				"getEthPrice()": "infinite",
				"liquidate(address)": "infinite",
				"name()": "infinite",
				"nonces(address)": "2916",
				"owner()": "2604",
				"permit(address,address,uint256,uint256,uint8,bytes32,bytes32)": "infinite",
				"renounceOwnership()": "infinite",
				"symbol()": "infinite",
				"totalSupply()": "2500",
				"transfer(address,uint256)": "infinite",
				"transferFrom(address,address,uint256)": "infinite",
				"transferOwnership(address)": "infinite"
			}
		},
		"methodIdentifiers": {
			"DOMAIN_SEPARATOR()": "3644e515",
			"allowance(address,address)": "dd62ed3e",
			"approve(address,uint256)": "095ea7b3",
			"balanceOf(address)": "70a08231",
			"borrow(uint256)": "c5ebeaec",
			"decimals()": "313ce567",
			"eip712Domain()": "84b0196e",
			"getEthPrice()": "67c9b017",
			"liquidate(address)": "2f865568",
			"name()": "06fdde03",
			"nonces(address)": "7ecebe00",
			"owner()": "8da5cb5b",
			"permit(address,address,uint256,uint256,uint8,bytes32,bytes32)": "d505accf",
			"renounceOwnership()": "715018a6",
			"symbol()": "95d89b41",
			"totalSupply()": "18160ddd",
			"transfer(address,uint256)": "a9059cbb",
			"transferFrom(address,address,uint256)": "23b872dd",
			"transferOwnership(address)": "f2fde38b"
		}
	},
	"abi": [
		{
			"inputs": [],
			"stateMutability": "nonpayable",
			"type": "constructor"
		},
		{
			"inputs": [],
			"name": "ECDSAInvalidSignature",
			"type": "error"
		},
		{
			"inputs": [
				{
					"internalType": "uint256",
					"name": "length",
					"type": "uint256"
				}
			],
			"name": "ECDSAInvalidSignatureLength",
			"type": "error"
		},
		{
			"inputs": [
				{
					"internalType": "bytes32",
					"name": "s",
					"type": "bytes32"
				}
			],
			"name": "ECDSAInvalidSignatureS",
			"type": "error"
		},
		{
			"inputs": [
				{
					"internalType": "address",
					"name": "spender",
					"type": "address"
				},
				{
					"internalType": "uint256",
					"name": "allowance",
					"type": "uint256"
				},
				{
					"internalType": "uint256",
					"name": "needed",
					"type": "uint256"
				}
			],
			"name": "ERC20InsufficientAllowance",
			"type": "error"
		},
		{
			"inputs": [
				{
					"internalType": "address",
					"name": "sender",
					"type": "address"
				},
				{
					"internalType": "uint256",
					"name": "balance",
					"type": "uint256"
				},
				{
					"internalType": "uint256",
					"name": "needed",
					"type": "uint256"
				}
			],
			"name": "ERC20InsufficientBalance",
			"type": "error"
		},
		{
			"inputs": [
				{
					"internalType": "address",
					"name": "approver",
					"type": "address"
				}
			],
			"name": "ERC20InvalidApprover",
			"type": "error"
		},
		{
			"inputs": [
				{
					"internalType": "address",
					"name": "receiver",
					"type": "address"
				}
			],
			"name": "ERC20InvalidReceiver",
			"type": "error"
		},
		{
			"inputs": [
				{
					"internalType": "address",
					"name": "sender",
					"type": "address"
				}
			],
			"name": "ERC20InvalidSender",
			"type": "error"
		},
		{
			"inputs": [
				{
					"internalType": "address",
					"name": "spender",
					"type": "address"
				}
			],
			"name": "ERC20InvalidSpender",
			"type": "error"
		},
		{
			"inputs": [
				{
					"internalType": "uint256",
					"name": "deadline",
					"type": "uint256"
				}
			],
			"name": "ERC2612ExpiredSignature",
			"type": "error"
		},
		{
			"inputs": [
				{
					"internalType": "address",
					"name": "signer",
					"type": "address"
				},
				{
					"internalType": "address",
					"name": "owner",
					"type": "address"
				}
			],
			"name": "ERC2612InvalidSigner",
			"type": "error"
		},
		{
			"inputs": [
				{
					"internalType": "address",
					"name": "account",
					"type": "address"
				},
				{
					"internalType": "uint256",
					"name": "currentNonce",
					"type": "uint256"
				}
			],
			"name": "InvalidAccountNonce",
			"type": "error"
		},
		{
			"inputs": [],
			"name": "InvalidShortString",
			"type": "error"
		},
		{
			"inputs": [
				{
					"internalType": "address",
					"name": "owner",
					"type": "address"
				}
			],
			"name": "OwnableInvalidOwner",
			"type": "error"
		},
		{
			"inputs": [
				{
					"internalType": "address",
					"name": "account",
					"type": "address"
				}
			],
			"name": "OwnableUnauthorizedAccount",
			"type": "error"
		},
		{
			"inputs": [
				{
					"internalType": "string",
					"name": "str",
					"type": "string"
				}
			],
			"name": "StringTooLong",
			"type": "error"
		},
		{
			"anonymous": false,
			"inputs": [
				{
					"indexed": true,
					"internalType": "address",
					"name": "owner",
					"type": "address"
				},
				{
					"indexed": true,
					"internalType": "address",
					"name": "spender",
					"type": "address"
				},
				{
					"indexed": false,
					"internalType": "uint256",
					"name": "value",
					"type": "uint256"
				}
			],
			"name": "Approval",
			"type": "event"
		},
		{
			"anonymous": false,
			"inputs": [
				{
					"indexed": true,
					"internalType": "address",
					"name": "owner",
					"type": "address"
				},
				{
					"indexed": false,
					"internalType": "uint256",
					"name": "amount",
					"type": "uint256"
				},
				{
					"indexed": false,
					"internalType": "bool",
					"name": "isUSDP",
					"type": "bool"
				}
			],
			"name": "Borrow",
			"type": "event"
		},
		{
			"anonymous": false,
			"inputs": [],
			"name": "EIP712DomainChanged",
			"type": "event"
		},
		{
			"anonymous": false,
			"inputs": [
				{
					"indexed": true,
					"internalType": "address",
					"name": "owner",
					"type": "address"
				},
				{
					"indexed": false,
					"internalType": "uint256",
					"name": "amount",
					"type": "uint256"
				},
				{
					"indexed": false,
					"internalType": "bool",
					"name": "isETH",
					"type": "bool"
				}
			],
			"name": "Liquidate",
			"type": "event"
		},
		{
			"anonymous": false,
			"inputs": [
				{
					"indexed": true,
					"internalType": "address",
					"name": "previousOwner",
					"type": "address"
				},
				{
					"indexed": true,
					"internalType": "address",
					"name": "newOwner",
					"type": "address"
				}
			],
			"name": "OwnershipTransferred",
			"type": "event"
		},
		{
			"anonymous": false,
			"inputs": [
				{
					"indexed": true,
					"internalType": "address",
					"name": "from",
					"type": "address"
				},
				{
					"indexed": true,
					"internalType": "address",
					"name": "to",
					"type": "address"
				},
				{
					"indexed": false,
					"internalType": "uint256",
					"name": "value",
					"type": "uint256"
				}
			],
			"name": "Transfer",
			"type": "event"
		},
		{
			"inputs": [],
			"name": "DOMAIN_SEPARATOR",
			"outputs": [
				{
					"internalType": "bytes32",
					"name": "",
					"type": "bytes32"
				}
			],
			"stateMutability": "view",
			"type": "function"
		},
		{
			"inputs": [
				{
					"internalType": "address",
					"name": "owner",
					"type": "address"
				},
				{
					"internalType": "address",
					"name": "spender",
					"type": "address"
				}
			],
			"name": "allowance",
			"outputs": [
				{
					"internalType": "uint256",
					"name": "",
					"type": "uint256"
				}
			],
			"stateMutability": "view",
			"type": "function"
		},
		{
			"inputs": [
				{
					"internalType": "address",
					"name": "spender",
					"type": "address"
				},
				{
					"internalType": "uint256",
					"name": "value",
					"type": "uint256"
				}
			],
			"name": "approve",
			"outputs": [
				{
					"internalType": "bool",
					"name": "",
					"type": "bool"
				}
			],
			"stateMutability": "nonpayable",
			"type": "function"
		},
		{
			"inputs": [
				{
					"internalType": "address",
					"name": "account",
					"type": "address"
				}
			],
			"name": "balanceOf",
			"outputs": [
				{
					"internalType": "uint256",
					"name": "",
					"type": "uint256"
				}
			],
			"stateMutability": "view",
			"type": "function"
		},
		{
			"inputs": [
				{
					"internalType": "uint256",
					"name": "ratio",
					"type": "uint256"
				}
			],
			"name": "borrow",
			"outputs": [],
			"stateMutability": "payable",
			"type": "function"
		},
		{
			"inputs": [],
			"name": "decimals",
			"outputs": [
				{
					"internalType": "uint8",
					"name": "",
					"type": "uint8"
				}
			],
			"stateMutability": "view",
			"type": "function"
		},
		{
			"inputs": [],
			"name": "eip712Domain",
			"outputs": [
				{
					"internalType": "bytes1",
					"name": "fields",
					"type": "bytes1"
				},
				{
					"internalType": "string",
					"name": "name",
					"type": "string"
				},
				{
					"internalType": "string",
					"name": "version",
					"type": "string"
				},
				{
					"internalType": "uint256",
					"name": "chainId",
					"type": "uint256"
				},
				{
					"internalType": "address",
					"name": "verifyingContract",
					"type": "address"
				},
				{
					"internalType": "bytes32",
					"name": "salt",
					"type": "bytes32"
				},
				{
					"internalType": "uint256[]",
					"name": "extensions",
					"type": "uint256[]"
				}
			],
			"stateMutability": "view",
			"type": "function"
		},
		{
			"inputs": [],
			"name": "getEthPrice",
			"outputs": [
				{
					"internalType": "uint256",
					"name": "",
					"type": "uint256"
				}
			],
			"stateMutability": "view",
			"type": "function"
		},
		{
			"inputs": [
				{
					"internalType": "address",
					"name": "addr",
					"type": "address"
				}
			],
			"name": "liquidate",
			"outputs": [],
			"stateMutability": "nonpayable",
			"type": "function"
		},
		{
			"inputs": [],
			"name": "name",
			"outputs": [
				{
					"internalType": "string",
					"name": "",
					"type": "string"
				}
			],
			"stateMutability": "view",
			"type": "function"
		},
		{
			"inputs": [
				{
					"internalType": "address",
					"name": "owner",
					"type": "address"
				}
			],
			"name": "nonces",
			"outputs": [
				{
					"internalType": "uint256",
					"name": "",
					"type": "uint256"
				}
			],
			"stateMutability": "view",
			"type": "function"
		},
		{
			"inputs": [],
			"name": "owner",
			"outputs": [
				{
					"internalType": "address",
					"name": "",
					"type": "address"
				}
			],
			"stateMutability": "view",
			"type": "function"
		},
		{
			"inputs": [
				{
					"internalType": "address",
					"name": "owner",
					"type": "address"
				},
				{
					"internalType": "address",
					"name": "spender",
					"type": "address"
				},
				{
					"internalType": "uint256",
					"name": "value",
					"type": "uint256"
				},
				{
					"internalType": "uint256",
					"name": "deadline",
					"type": "uint256"
				},
				{
					"internalType": "uint8",
					"name": "v",
					"type": "uint8"
				},
				{
					"internalType": "bytes32",
					"name": "r",
					"type": "bytes32"
				},
				{
					"internalType": "bytes32",
					"name": "s",
					"type": "bytes32"
				}
			],
			"name": "permit",
			"outputs": [],
			"stateMutability": "nonpayable",
			"type": "function"
		},
		{
			"inputs": [],
			"name": "renounceOwnership",
			"outputs": [],
			"stateMutability": "nonpayable",
			"type": "function"
		},
		{
			"inputs": [],
			"name": "symbol",
			"outputs": [
				{
					"internalType": "string",
					"name": "",
					"type": "string"
				}
			],
			"stateMutability": "view",
			"type": "function"
		},
		{
			"inputs": [],
			"name": "totalSupply",
			"outputs": [
				{
					"internalType": "uint256",
					"name": "",
					"type": "uint256"
				}
			],
			"stateMutability": "view",
			"type": "function"
		},
		{
			"inputs": [
				{
					"internalType": "address",
					"name": "to",
					"type": "address"
				},
				{
					"internalType": "uint256",
					"name": "value",
					"type": "uint256"
				}
			],
			"name": "transfer",
			"outputs": [
				{
					"internalType": "bool",
					"name": "",
					"type": "bool"
				}
			],
			"stateMutability": "nonpayable",
			"type": "function"
		},
		{
			"inputs": [
				{
					"internalType": "address",
					"name": "from",
					"type": "address"
				},
				{
					"internalType": "address",
					"name": "to",
					"type": "address"
				},
				{
					"internalType": "uint256",
					"name": "value",
					"type": "uint256"
				}
			],
			"name": "transferFrom",
			"outputs": [
				{
					"internalType": "bool",
					"name": "",
					"type": "bool"
				}
			],
			"stateMutability": "nonpayable",
			"type": "function"
		},
		{
			"inputs": [
				{
					"internalType": "address",
					"name": "newOwner",
					"type": "address"
				}
			],
			"name": "transferOwnership",
			"outputs": [],
			"stateMutability": "nonpayable",
			"type": "function"
		}
	]
}